{
  "contractName": "StandardCharity",
  "abi": [
    {
      "inputs": [],
      "stateMutability": "nonpayable",
      "type": "constructor"
    },
    {
      "anonymous": false,
      "inputs": [
        {
          "indexed": false,
          "internalType": "address",
          "name": "donator",
          "type": "address"
        },
        {
          "indexed": false,
          "internalType": "uint256",
          "name": "donationNumber",
          "type": "uint256"
        },
        {
          "indexed": false,
          "internalType": "uint256",
          "name": "value",
          "type": "uint256"
        },
        {
          "indexed": false,
          "internalType": "uint256",
          "name": "overallDonationNumber",
          "type": "uint256"
        }
      ],
      "name": "LogNewDonation",
      "type": "event"
    },
    {
      "anonymous": false,
      "inputs": [
        {
          "indexed": false,
          "internalType": "address",
          "name": "donator",
          "type": "address"
        },
        {
          "indexed": false,
          "internalType": "uint256",
          "name": "donationNumber",
          "type": "uint256"
        },
        {
          "indexed": false,
          "internalType": "uint256",
          "name": "expeditureNumber",
          "type": "uint256"
        },
        {
          "indexed": false,
          "internalType": "uint256",
          "name": "expendedDonationNumber",
          "type": "uint256"
        }
      ],
      "name": "LogNewExpendedDonation",
      "type": "event"
    },
    {
      "anonymous": false,
      "inputs": [
        {
          "indexed": false,
          "internalType": "uint256",
          "name": "expenditureNumber",
          "type": "uint256"
        },
        {
          "indexed": false,
          "internalType": "uint256",
          "name": "valueETH",
          "type": "uint256"
        }
      ],
      "name": "LogNewExpenditure",
      "type": "event"
    },
    {
      "anonymous": false,
      "inputs": [
        {
          "indexed": false,
          "internalType": "uint256",
          "name": "nextDonationToExpend",
          "type": "uint256"
        }
      ],
      "name": "LogNewNextDonationToExpend",
      "type": "event"
    },
    {
      "anonymous": false,
      "inputs": [
        {
          "indexed": false,
          "internalType": "address",
          "name": "donator",
          "type": "address"
        },
        {
          "indexed": false,
          "internalType": "uint256",
          "name": "donationNumber",
          "type": "uint256"
        },
        {
          "indexed": false,
          "internalType": "uint256",
          "name": "valueETH",
          "type": "uint256"
        }
      ],
      "name": "LogNewRefund",
      "type": "event"
    },
    {
      "anonymous": false,
      "inputs": [
        {
          "indexed": true,
          "internalType": "address",
          "name": "previousOwner",
          "type": "address"
        },
        {
          "indexed": true,
          "internalType": "address",
          "name": "newOwner",
          "type": "address"
        }
      ],
      "name": "OwnershipTransferred",
      "type": "event"
    },
    {
      "anonymous": false,
      "inputs": [
        {
          "indexed": false,
          "internalType": "address",
          "name": "account",
          "type": "address"
        }
      ],
      "name": "Paused",
      "type": "event"
    },
    {
      "anonymous": false,
      "inputs": [
        {
          "indexed": false,
          "internalType": "address",
          "name": "account",
          "type": "address"
        }
      ],
      "name": "Unpaused",
      "type": "event"
    },
    {
      "inputs": [
        {
          "internalType": "uint256",
          "name": "",
          "type": "uint256"
        }
      ],
      "name": "donationTracker",
      "outputs": [
        {
          "internalType": "string",
          "name": "",
          "type": "string"
        }
      ],
      "stateMutability": "view",
      "type": "function",
      "constant": true
    },
    {
      "inputs": [
        {
          "internalType": "address",
          "name": "",
          "type": "address"
        },
        {
          "internalType": "uint256",
          "name": "",
          "type": "uint256"
        }
      ],
      "name": "donations",
      "outputs": [
        {
          "internalType": "address",
          "name": "donator",
          "type": "address"
        },
        {
          "internalType": "uint256",
          "name": "value",
          "type": "uint256"
        },
        {
          "internalType": "uint256",
          "name": "timestamp",
          "type": "uint256"
        },
        {
          "internalType": "uint256",
          "name": "valueExpendedETH",
          "type": "uint256"
        },
        {
          "internalType": "uint256",
          "name": "valueExpendedUSD",
          "type": "uint256"
        },
        {
          "internalType": "uint256",
          "name": "valueRefundedETH",
          "type": "uint256"
        },
        {
          "internalType": "uint256",
          "name": "donationNumber",
          "type": "uint256"
        },
        {
          "internalType": "uint256",
          "name": "numExpenditures",
          "type": "uint256"
        }
      ],
      "stateMutability": "view",
      "type": "function",
      "constant": true
    },
    {
      "inputs": [
        {
          "internalType": "uint256",
          "name": "",
          "type": "uint256"
        }
      ],
      "name": "expendedDonations",
      "outputs": [
        {
          "internalType": "address",
          "name": "donator",
          "type": "address"
        },
        {
          "internalType": "uint256",
          "name": "valueExpendedETH",
          "type": "uint256"
        },
        {
          "internalType": "uint256",
          "name": "valueExpendedUSD",
          "type": "uint256"
        },
        {
          "internalType": "uint256",
          "name": "expenditureNumber",
          "type": "uint256"
        },
        {
          "internalType": "uint256",
          "name": "donationNumber",
          "type": "uint256"
        },
        {
          "internalType": "uint256",
          "name": "platesDeployed",
          "type": "uint256"
        }
      ],
      "stateMutability": "view",
      "type": "function",
      "constant": true
    },
    {
      "inputs": [
        {
          "internalType": "uint256",
          "name": "",
          "type": "uint256"
        }
      ],
      "name": "expenditures",
      "outputs": [
        {
          "internalType": "uint256",
          "name": "valueExpendedETH",
          "type": "uint256"
        },
        {
          "internalType": "uint256",
          "name": "valueExpendedUSD",
          "type": "uint256"
        },
        {
          "internalType": "string",
          "name": "videoHash",
          "type": "string"
        },
        {
          "internalType": "string",
          "name": "receiptHash",
          "type": "string"
        },
        {
          "internalType": "uint256",
          "name": "timestamp",
          "type": "uint256"
        },
        {
          "internalType": "uint256",
          "name": "numExpendedDonations",
          "type": "uint256"
        },
        {
          "internalType": "uint256",
          "name": "valueExpendedByDonations",
          "type": "uint256"
        },
        {
          "internalType": "uint256",
          "name": "platesDeployed",
          "type": "uint256"
        }
      ],
      "stateMutability": "view",
      "type": "function",
      "constant": true
    },
    {
      "inputs": [],
      "name": "latestDonation",
      "outputs": [
        {
          "internalType": "address",
          "name": "donator",
          "type": "address"
        },
        {
          "internalType": "uint256",
          "name": "value",
          "type": "uint256"
        },
        {
          "internalType": "uint256",
          "name": "timestamp",
          "type": "uint256"
        }
      ],
      "stateMutability": "view",
      "type": "function",
      "constant": true
    },
    {
      "inputs": [],
      "name": "maxDonation",
      "outputs": [
        {
          "internalType": "address",
          "name": "donator",
          "type": "address"
        },
        {
          "internalType": "uint256",
          "name": "value",
          "type": "uint256"
        },
        {
          "internalType": "uint256",
          "name": "timestamp",
          "type": "uint256"
        }
      ],
      "stateMutability": "view",
      "type": "function",
      "constant": true
    },
    {
      "inputs": [],
      "name": "nextDonationToExpend",
      "outputs": [
        {
          "internalType": "uint256",
          "name": "",
          "type": "uint256"
        }
      ],
      "stateMutability": "view",
      "type": "function",
      "constant": true
    },
    {
      "inputs": [
        {
          "internalType": "address",
          "name": "",
          "type": "address"
        }
      ],
      "name": "numDonationsByUser",
      "outputs": [
        {
          "internalType": "uint256",
          "name": "_value",
          "type": "uint256"
        }
      ],
      "stateMutability": "view",
      "type": "function",
      "constant": true
    },
    {
      "inputs": [],
      "name": "owner",
      "outputs": [
        {
          "internalType": "address",
          "name": "",
          "type": "address"
        }
      ],
      "stateMutability": "view",
      "type": "function",
      "constant": true
    },
    {
      "inputs": [],
      "name": "paused",
      "outputs": [
        {
          "internalType": "bool",
          "name": "",
          "type": "bool"
        }
      ],
      "stateMutability": "view",
      "type": "function",
      "constant": true
    },
    {
      "inputs": [],
      "name": "renounceOwnership",
      "outputs": [],
      "stateMutability": "nonpayable",
      "type": "function"
    },
    {
      "inputs": [],
      "name": "totalDonationsETH",
      "outputs": [
        {
          "internalType": "uint256",
          "name": "",
          "type": "uint256"
        }
      ],
      "stateMutability": "view",
      "type": "function",
      "constant": true
    },
    {
      "inputs": [],
      "name": "totalExpendedETH",
      "outputs": [
        {
          "internalType": "uint256",
          "name": "",
          "type": "uint256"
        }
      ],
      "stateMutability": "view",
      "type": "function",
      "constant": true
    },
    {
      "inputs": [],
      "name": "totalExpendedUSD",
      "outputs": [
        {
          "internalType": "uint256",
          "name": "",
          "type": "uint256"
        }
      ],
      "stateMutability": "view",
      "type": "function",
      "constant": true
    },
    {
      "inputs": [],
      "name": "totalNumDonations",
      "outputs": [
        {
          "internalType": "uint256",
          "name": "_value",
          "type": "uint256"
        }
      ],
      "stateMutability": "view",
      "type": "function",
      "constant": true
    },
    {
      "inputs": [],
      "name": "totalNumExpenditures",
      "outputs": [
        {
          "internalType": "uint256",
          "name": "_value",
          "type": "uint256"
        }
      ],
      "stateMutability": "view",
      "type": "function",
      "constant": true
    },
    {
      "inputs": [],
      "name": "totalPlatesDeployed",
      "outputs": [
        {
          "internalType": "uint256",
          "name": "",
          "type": "uint256"
        }
      ],
      "stateMutability": "view",
      "type": "function",
      "constant": true
    },
    {
      "inputs": [
        {
          "internalType": "address",
          "name": "newOwner",
          "type": "address"
        }
      ],
      "name": "transferOwnership",
      "outputs": [],
      "stateMutability": "nonpayable",
      "type": "function"
    },
    {
      "stateMutability": "payable",
      "type": "receive",
      "payable": true
    },
    {
      "inputs": [],
      "name": "donate",
      "outputs": [],
      "stateMutability": "payable",
      "type": "function",
      "payable": true
    },
    {
      "inputs": [
        {
          "internalType": "string",
          "name": "_videoHash",
          "type": "string"
        },
        {
          "internalType": "string",
          "name": "_receiptHash",
          "type": "string"
        },
        {
          "internalType": "uint256",
          "name": "_valueUSD",
          "type": "uint256"
        },
        {
          "internalType": "uint256",
          "name": "_valueETH",
          "type": "uint256"
        },
        {
          "internalType": "uint256",
          "name": "_platesDeployed",
          "type": "uint256"
        }
      ],
      "name": "createExpenditure",
      "outputs": [],
      "stateMutability": "nonpayable",
      "type": "function"
    },
    {
      "inputs": [
        {
          "internalType": "uint256",
          "name": "_nextDonationToExpend",
          "type": "uint256"
        }
      ],
      "name": "setNextDonationToExpend",
      "outputs": [],
      "stateMutability": "nonpayable",
      "type": "function"
    },
    {
      "inputs": [
        {
          "internalType": "address",
          "name": "_donator",
          "type": "address"
        },
        {
          "internalType": "uint256",
          "name": "_valueExpendedETH",
          "type": "uint256"
        },
        {
          "internalType": "uint256",
          "name": "_valueExpendedUSD",
          "type": "uint256"
        },
        {
          "internalType": "uint256",
          "name": "_donationNumber",
          "type": "uint256"
        },
        {
          "internalType": "uint256",
          "name": "_expeditureNumber",
          "type": "uint256"
        },
        {
          "internalType": "uint256",
          "name": "_platesDeployed",
          "type": "uint256"
        }
      ],
      "name": "createExpendedDonation",
      "outputs": [],
      "stateMutability": "nonpayable",
      "type": "function"
    },
    {
      "inputs": [
        {
          "internalType": "address",
          "name": "_address",
          "type": "address"
        },
        {
          "internalType": "uint256",
          "name": "_donationNumber",
          "type": "uint256"
        },
        {
          "internalType": "uint256",
          "name": "_expenditureNumber",
          "type": "uint256"
        }
      ],
      "name": "getExpendedDonationIDForDonation",
      "outputs": [
        {
          "internalType": "uint256",
          "name": "",
          "type": "uint256"
        }
      ],
      "stateMutability": "view",
      "type": "function",
      "constant": true
    },
    {
      "inputs": [
        {
          "internalType": "uint256",
          "name": "_expenditureNumber",
          "type": "uint256"
        },
        {
          "internalType": "uint256",
          "name": "_expendedDonationNumber",
          "type": "uint256"
        }
      ],
      "name": "getExpendedDonationIDForExpenditure",
      "outputs": [
        {
          "internalType": "uint256",
          "name": "",
          "type": "uint256"
        }
      ],
      "stateMutability": "view",
      "type": "function",
      "constant": true
    },
    {
      "inputs": [
        {
          "internalType": "address",
          "name": "_address",
          "type": "address"
        },
        {
          "internalType": "uint256",
          "name": "_donationNumber",
          "type": "uint256"
        },
        {
          "internalType": "uint256",
          "name": "_valueETHToRefund",
          "type": "uint256"
        }
      ],
      "name": "refundDonation",
      "outputs": [],
      "stateMutability": "nonpayable",
      "type": "function"
    },
    {
      "inputs": [
        {
          "internalType": "address",
          "name": "x",
          "type": "address"
        }
      ],
      "name": "toAsciiString",
      "outputs": [
        {
          "internalType": "string",
          "name": "",
          "type": "string"
        }
      ],
      "stateMutability": "pure",
      "type": "function",
      "constant": true
    },
    {
      "inputs": [
        {
          "internalType": "string",
          "name": "_base",
          "type": "string"
        },
        {
          "internalType": "string",
          "name": "_value",
          "type": "string"
        }
      ],
      "name": "concat",
      "outputs": [
        {
          "internalType": "string",
          "name": "",
          "type": "string"
        }
      ],
      "stateMutability": "pure",
      "type": "function",
      "constant": true
    },
    {
      "inputs": [],
      "name": "getTotalNumDonations",
      "outputs": [
        {
          "internalType": "uint256",
          "name": "",
          "type": "uint256"
        }
      ],
      "stateMutability": "view",
      "type": "function",
      "constant": true
    },
    {
      "inputs": [],
      "name": "getTotalNumExpenditures",
      "outputs": [
        {
          "internalType": "uint256",
          "name": "",
          "type": "uint256"
        }
      ],
      "stateMutability": "view",
      "type": "function",
      "constant": true
    },
    {
      "inputs": [],
      "name": "getTotalNumExpendedDonations",
      "outputs": [
        {
          "internalType": "uint256",
          "name": "",
          "type": "uint256"
        }
      ],
      "stateMutability": "view",
      "type": "function",
      "constant": true
    },
    {
      "inputs": [],
      "name": "getContractBalance",
      "outputs": [
        {
          "internalType": "uint256",
          "name": "",
          "type": "uint256"
        }
      ],
      "stateMutability": "view",
      "type": "function",
      "constant": true
    },
    {
      "inputs": [
        {
          "internalType": "string",
          "name": "_string",
          "type": "string"
        }
      ],
      "name": "isTextEmpty",
      "outputs": [
        {
          "internalType": "bool",
          "name": "",
          "type": "bool"
        }
      ],
      "stateMutability": "pure",
      "type": "function",
      "constant": true
    }
  ],
  "bytecode": "0x60806040523480156200001157600080fd5b50600062000024620000ea60201b60201c565b9050806000806101000a81548173ffffffffffffffffffffffffffffffffffffffff021916908373ffffffffffffffffffffffffffffffffffffffff1602179055508073ffffffffffffffffffffffffffffffffffffffff16600073ffffffffffffffffffffffffffffffffffffffff167f8be0079c531659141344cd1fd0a4f28419497f9722a3daafe3b4186f6b6457e060405160405180910390a35060008060146101000a81548160ff0219169083151502179055506001600981905550620000f2565b600033905090565b613bcd80620001026000396000f3fe6080604052600436106101e75760003560e01c8063a40dd85c11610102578063db3487ac11610095578063f1e96f0711610064578063f1e96f0714610f05578063f2fde38b14610f30578063f9cc8dee14610f81578063fdcfc31914610fd057610246565b8063db3487ac14610cd0578063dfddb91e14610cfb578063ed88c68e14610e78578063ed8e07c914610e8257610246565b8063b4a848f8116100d1578063b4a848f814610c24578063b55dcd9d14610c4f578063c6f5d54c14610c7a578063d033bb7514610ca557610246565b8063a40dd85c14610a91578063a8681fd914610b6f578063af2754bb14610bbe578063af64b66314610be957610246565b80636f9fb98a1161017a5780638da5cb5b116101495780638da5cb5b1461085e57806392edc1d61461089f57806395086ed114610927578063981376b7146109dd57610246565b80636f9fb98a1461061957806370ece2af14610644578063715018a61461066f57806389c19ddb1461068657610246565b806339f64907116101b657806339f649071461041e5780633af48e321461044957806349754e51146105935780635c975abb146105ec57610246565b80631a4dddab1461024b57806321617dad146102765780632ab20123146102db5780632c6e75981461035457610246565b36610246576000341115610244576101fd611035565b73ffffffffffffffffffffffffffffffffffffffff166108fc349081150290604051600060405180830381858888f19350505050158015610242573d6000803e3d6000fd5b505b005b600080fd5b34801561025757600080fd5b5061026061105e565b6040518082815260200191505060405180910390f35b34801561028257600080fd5b506102c56004803603602081101561029957600080fd5b81019080803573ffffffffffffffffffffffffffffffffffffffff16906020019092919050505061106f565b6040518082815260200191505060405180910390f35b3480156102e757600080fd5b5061033e600480360360608110156102fe57600080fd5b81019080803573ffffffffffffffffffffffffffffffffffffffff169060200190929190803590602001909291908035906020019092919050505061108d565b6040518082815260200191505060405180910390f35b34801561036057600080fd5b506103a36004803603602081101561037757600080fd5b81019080803573ffffffffffffffffffffffffffffffffffffffff1690602001909291905050506110fd565b6040518080602001828103825283818151815260200191508051906020019080838360005b838110156103e35780820151818401526020810190506103c8565b50505050905090810190601f1680156104105780820380516001836020036101000a031916815260200191505b509250505060405180910390f35b34801561042a57600080fd5b50610433611260565b6040518082815260200191505060405180910390f35b34801561045557600080fd5b506104826004803603602081101561046c57600080fd5b8101908080359060200190929190505050611266565b604051808981526020018881526020018060200180602001878152602001868152602001858152602001848152602001838103835289818151815260200191508051906020019080838360005b838110156104ea5780820151818401526020810190506104cf565b50505050905090810190601f1680156105175780820380516001836020036101000a031916815260200191505b50838103825288818151815260200191508051906020019080838360005b83811015610550578082015181840152602081019050610535565b50505050905090810190601f16801561057d5780820380516001836020036101000a031916815260200191505b509a505050505050505050505060405180910390f35b34801561059f57600080fd5b506105d6600480360360408110156105b657600080fd5b8101908080359060200190929190803590602001909291905050506113de565b6040518082815260200191505060405180910390f35b3480156105f857600080fd5b50610601611410565b60405180821515815260200191505060405180910390f35b34801561062557600080fd5b5061062e611426565b6040518082815260200191505060405180910390f35b34801561065057600080fd5b5061065961142e565b6040518082815260200191505060405180910390f35b34801561067b57600080fd5b50610684611434565b005b34801561069257600080fd5b506107e3600480360360408110156106a957600080fd5b81019080803590602001906401000000008111156106c657600080fd5b8201836020820111156106d857600080fd5b803590602001918460018302840111640100000000831117156106fa57600080fd5b91908080601f016020809104026020016040519081016040528093929190818152602001838380828437600081840152601f19601f8201169050808301925050505050505091929192908035906020019064010000000081111561075d57600080fd5b82018360208201111561076f57600080fd5b8035906020019184600183028401116401000000008311171561079157600080fd5b91908080601f016020809104026020016040519081016040528093929190818152602001838380828437600081840152601f19601f8201169050808301925050505050505091929192905050506115ba565b6040518080602001828103825283818151815260200191508051906020019080838360005b83811015610823578082015181840152602081019050610808565b50505050905090810190601f1680156108505780820380516001836020036101000a031916815260200191505b509250505060405180910390f35b34801561086a57600080fd5b50610873611035565b604051808273ffffffffffffffffffffffffffffffffffffffff16815260200191505060405180910390f35b3480156108ab57600080fd5b506108d8600480360360208110156108c257600080fd5b8101908080359060200190929190505050611715565b604051808773ffffffffffffffffffffffffffffffffffffffff168152602001868152602001858152602001848152602001838152602001828152602001965050505050505060405180910390f35b34801561093357600080fd5b506109806004803603604081101561094a57600080fd5b81019080803573ffffffffffffffffffffffffffffffffffffffff16906020019092919080359060200190929190505050611771565b604051808973ffffffffffffffffffffffffffffffffffffffff1681526020018881526020018781526020018681526020018581526020018481526020018381526020018281526020019850505050505050505060405180910390f35b3480156109e957600080fd5b50610a1660048036036020811015610a0057600080fd5b81019080803590602001909291905050506117e6565b6040518080602001828103825283818151815260200191508051906020019080838360005b83811015610a56578082015181840152602081019050610a3b565b50505050905090810190601f168015610a835780820380516001836020036101000a031916815260200191505b509250505060405180910390f35b348015610a9d57600080fd5b50610b5760048036036020811015610ab457600080fd5b8101908080359060200190640100000000811115610ad157600080fd5b820183602082011115610ae357600080fd5b80359060200191846001830284011164010000000083111715610b0557600080fd5b91908080601f016020809104026020016040519081016040528093929190818152602001838380828437600081840152601f19601f820116905080830192505050505050509192919290505050611896565b60405180821515815260200191505060405180910390f35b348015610b7b57600080fd5b50610b846118a3565b604051808473ffffffffffffffffffffffffffffffffffffffff168152602001838152602001828152602001935050505060405180910390f35b348015610bca57600080fd5b50610bd36118db565b6040518082815260200191505060405180910390f35b348015610bf557600080fd5b50610c2260048036036020811015610c0c57600080fd5b81019080803590602001909291905050506118ec565b005b348015610c3057600080fd5b50610c39611c42565b6040518082815260200191505060405180910390f35b348015610c5b57600080fd5b50610c64611c48565b6040518082815260200191505060405180910390f35b348015610c8657600080fd5b50610c8f611c4e565b6040518082815260200191505060405180910390f35b348015610cb157600080fd5b50610cba611c5a565b6040518082815260200191505060405180910390f35b348015610cdc57600080fd5b50610ce5611c60565b6040518082815260200191505060405180910390f35b348015610d0757600080fd5b50610e76600480360360a0811015610d1e57600080fd5b8101908080359060200190640100000000811115610d3b57600080fd5b820183602082011115610d4d57600080fd5b80359060200191846001830284011164010000000083111715610d6f57600080fd5b91908080601f016020809104026020016040519081016040528093929190818152602001838380828437600081840152601f19601f82011690508083019250505050505050919291929080359060200190640100000000811115610dd257600080fd5b820183602082011115610de457600080fd5b80359060200191846001830284011164010000000083111715610e0657600080fd5b91908080601f016020809104026020016040519081016040528093929190818152602001838380828437600081840152601f19601f820116905080830192505050505050509192919290803590602001909291908035906020019092919080359060200190929190505050611c6c565b005b610e8061210c565b005b348015610e8e57600080fd5b50610f03600480360360c0811015610ea557600080fd5b81019080803573ffffffffffffffffffffffffffffffffffffffff1690602001909291908035906020019092919080359060200190929190803590602001909291908035906020019092919080359060200190929190505050612464565b005b348015610f1157600080fd5b50610f1a612c58565b6040518082815260200191505060405180910390f35b348015610f3c57600080fd5b50610f7f60048036036020811015610f5357600080fd5b81019080803573ffffffffffffffffffffffffffffffffffffffff169060200190929190505050612c69565b005b348015610f8d57600080fd5b50610f96612e74565b604051808473ffffffffffffffffffffffffffffffffffffffff168152602001838152602001828152602001935050505060405180910390f35b348015610fdc57600080fd5b5061103360048036036060811015610ff357600080fd5b81019080803573ffffffffffffffffffffffffffffffffffffffff1690602001909291908035906020019092919080359060200190929190505050612eac565b005b60008060009054906101000a900473ffffffffffffffffffffffffffffffffffffffff16905090565b600061106a6008613325565b905090565b60026020528060005260406000206000915090508060000154905081565b6000600160008573ffffffffffffffffffffffffffffffffffffffff1673ffffffffffffffffffffffffffffffffffffffff168152602001908152602001600020600084815260200190815260200160002060070160008381526020019081526020016000205490509392505050565b606080602867ffffffffffffffff8111801561111857600080fd5b506040519080825280601f01601f19166020018201604052801561114b5781602001600182028036833780820191505090505b50905060005b60148110156112565760008160130360080260020a8573ffffffffffffffffffffffffffffffffffffffff168161118457fe5b0460f81b9050600060108260f81c60ff168161119c57fe5b0460f81b905060008160f81c6010028360f81c0360f81b90506111be82613333565b8585600202815181106111cd57fe5b60200101907effffffffffffffffffffffffffffffffffffffffffffffffffffffffffffff1916908160001a90535061120581613333565b85600186600202018151811061121757fe5b60200101907effffffffffffffffffffffffffffffffffffffffffffffffffffffffffffff1916908160001a9053505050508080600101915050611151565b5080915050919050565b600d5481565b6005602052806000526040600020600091509050806000015490806001015490806002018054600181600116156101000203166002900480601f01602080910402602001604051908101604052809291908181526020018280546001816001161561010002031660029004801561131e5780601f106112f35761010080835404028352916020019161131e565b820191906000526020600020905b81548152906001019060200180831161130157829003601f168201915b505050505090806003018054600181600116156101000203166002900480601f0160208091040260200160405190810160405280929190818152602001828054600181600116156101000203166002900480156113bc5780601f10611391576101008083540402835291602001916113bc565b820191906000526020600020905b81548152906001019060200180831161139f57829003601f168201915b5050505050908060040154908060060154908060070154908060080154905088565b600060056000848152602001908152602001600020600501600083815260200190815260200160002054905092915050565b60008060149054906101000a900460ff16905090565b600047905090565b60095481565b61143c613367565b73ffffffffffffffffffffffffffffffffffffffff1660008054906101000a900473ffffffffffffffffffffffffffffffffffffffff1673ffffffffffffffffffffffffffffffffffffffff16146114fc576040517f08c379a00000000000000000000000000000000000000000000000000000000081526004018080602001828103825260208152602001807f4f776e61626c653a2063616c6c6572206973206e6f7420746865206f776e657281525060200191505060405180910390fd5b600073ffffffffffffffffffffffffffffffffffffffff1660008054906101000a900473ffffffffffffffffffffffffffffffffffffffff1673ffffffffffffffffffffffffffffffffffffffff167f8be0079c531659141344cd1fd0a4f28419497f9722a3daafe3b4186f6b6457e060405160405180910390a360008060006101000a81548173ffffffffffffffffffffffffffffffffffffffff021916908373ffffffffffffffffffffffffffffffffffffffff160217905550565b60608083905060608390506060815183510167ffffffffffffffff811180156115e257600080fd5b506040519080825280601f01601f1916602001820160405280156116155781602001600182028036833780820191505090505b5090506060819050600080600091505b85518210156116935785828151811061163a57fe5b602001015160f81c60f81b83828060010193508151811061165757fe5b60200101907effffffffffffffffffffffffffffffffffffffffffffffffffffffffffffff1916908160001a9053508180600101925050611625565b600091505b8451821015611706578482815181106116ad57fe5b602001015160f81c60f81b8382806001019350815181106116ca57fe5b60200101907effffffffffffffffffffffffffffffffffffffffffffffffffffffffffffff1916908160001a9053508180600101925050611698565b82965050505050505092915050565b60076020528060005260406000206000915090508060000160009054906101000a900473ffffffffffffffffffffffffffffffffffffffff16908060010154908060020154908060030154908060040154908060050154905086565b6001602052816000526040600020602052806000526040600020600091509150508060000160009054906101000a900473ffffffffffffffffffffffffffffffffffffffff16908060010154908060020154908060030154908060040154908060050154908060060154908060080154905088565b60046020528060005260406000206000915090508054600181600116156101000203166002900480601f01602080910402602001604051908101604052809291908181526020018280546001816001161561010002031660029004801561188e5780601f106118635761010080835404028352916020019161188e565b820191906000526020600020905b81548152906001019060200180831161187157829003601f168201915b505050505081565b6000808251149050919050565b600e8060000160009054906101000a900473ffffffffffffffffffffffffffffffffffffffff16908060010154908060020154905083565b60006118e76003613325565b905090565b6118f4613367565b73ffffffffffffffffffffffffffffffffffffffff1660008054906101000a900473ffffffffffffffffffffffffffffffffffffffff1673ffffffffffffffffffffffffffffffffffffffff16146119b4576040517f08c379a00000000000000000000000000000000000000000000000000000000081526004018080602001828103825260208152602001807f4f776e61626c653a2063616c6c6572206973206e6f7420746865206f776e657281525060200191505060405180910390fd5b6009548111611a0e576040517f08c379a0000000000000000000000000000000000000000000000000000000008152600401808060200182810382526049815260200180613b056049913960600191505060405180910390fd5b606060046000611a2860018561336f90919063ffffffff16565b81526020019081526020016000208054600181600116156101000203166002900480601f016020809104026020016040519081016040528092919081815260200182805460018160011615610100020316600290048015611aca5780601f10611a9f57610100808354040283529160200191611aca565b820191906000526020600020905b815481529060010190602001808311611aad57829003601f168201915b505050505090506060600460008481526020019081526020016000208054600181600116156101000203166002900480601f016020809104026020016040519081016040528092919081815260200182805460018160011615610100020316600290048015611b7a5780601f10611b4f57610100808354040283529160200191611b7a565b820191906000526020600020905b815481529060010190602001808311611b5d57829003601f168201915b5050505050905060011515611b8e83611896565b1515148015611ba9575060011515611ba582611896565b1515145b15611bff576040517f08c379a00000000000000000000000000000000000000000000000000000000081526004018080602001828103825260308152602001806139376030913960400191505060405180910390fd5b826009819055507f959f7e5c4f0aadad333d6f3faa1d0df15675432cf23511aa5bbee05102e89d9d836040518082815260200191505060405180910390a1505050565b600c5481565b600a5481565b60038060000154905081565b600b5481565b60068060000154905081565b611c74613367565b73ffffffffffffffffffffffffffffffffffffffff1660008054906101000a900473ffffffffffffffffffffffffffffffffffffffff1673ffffffffffffffffffffffffffffffffffffffff1614611d34576040517f08c379a00000000000000000000000000000000000000000000000000000000081526004018080602001828103825260208152602001807f4f776e61626c653a2063616c6c6572206973206e6f7420746865206f776e657281525060200191505060405180910390fd5b60008211611d8d576040517f08c379a0000000000000000000000000000000000000000000000000000000008152600401808060200182810382526033815260200180613a9f6033913960400191505060405180910390fd5b60008311611de6576040517f08c379a0000000000000000000000000000000000000000000000000000000008152600401808060200182810382526033815260200180613ad26033913960400191505060405180910390fd5b60001515611df386611896565b151514611e68576040517f08c379a000000000000000000000000000000000000000000000000000000000815260040180806020018281038252601d8152602001807f4120766964656f2068617368206d75737420626520737570706c69656400000081525060200191505060405180910390fd5b60001515611e7585611896565b151514611eea576040517f08c379a000000000000000000000000000000000000000000000000000000000815260040180806020018281038252601f8152602001807f4120726563656970742068617368206d75737420626520737570706c6965640081525060200191505060405180910390fd5b81471015611f43576040517f08c379a000000000000000000000000000000000000000000000000000000000815260040180806020018281038252604a815260200180613b4e604a913960600191505060405180910390fd5b611f4d60066133b9565b60405180610100016040528083815260200184815260200186815260200185815260200142815260200160008152602001600081526020018281525060056000611f976006613325565b815260200190815260200160002060008201518160000155602082015181600101556040820151816002019080519060200190611fd59291906137ad565b506060820151816003019080519060200190611ff29291906137ad565b506080820151816004015560a0820151816006015560c0820151816007015560e0820151816008015590505061203382600b546133cf90919063ffffffff16565b600b8190555061204e83600c546133cf90919063ffffffff16565b600c8190555061206981600d546133cf90919063ffffffff16565b600d81905550612077611035565b73ffffffffffffffffffffffffffffffffffffffff166108fc839081150290604051600060405180830381858888f193505050501580156120bc573d6000803e3d6000fd5b507f131488d89d21917743c9874a4bc55e1b575fbda9b6c322d3757d4926ec66f46c6120e86006613325565b83604051808381526020018281526020019250505060405180910390a15050505050565b60003411612165576040517f08c379a00000000000000000000000000000000000000000000000000000000081526004018080602001828103825260268152602001806139db6026913960400191505060405180910390fd5b6121ac600260003373ffffffffffffffffffffffffffffffffffffffff1673ffffffffffffffffffffffffffffffffffffffff1681526020019081526020016000206133b9565b60006121f5600260003373ffffffffffffffffffffffffffffffffffffffff1673ffffffffffffffffffffffffffffffffffffffff168152602001908152602001600020613325565b90506121ff61382d565b6040518061010001604052803373ffffffffffffffffffffffffffffffffffffffff1681526020013481526020014281526020016000815260200160008152602001600081526020018381526020016000815250905080600160003373ffffffffffffffffffffffffffffffffffffffff1673ffffffffffffffffffffffffffffffffffffffff168152602001908152602001600020600084815260200190815260200160002060008201518160000160006101000a81548173ffffffffffffffffffffffffffffffffffffffff021916908373ffffffffffffffffffffffffffffffffffffffff1602179055506020820151816001015560408201518160020155606082015181600301556080820151816004015560a0820151816005015560c0820151816006015560e0820151816008015590505061234060036133b9565b7f549133c8abb2a97e200ca695625c9a3f123e3bc9caee26891ecd7db3e2e066bb33833461236e6003613325565b604051808573ffffffffffffffffffffffffffffffffffffffff16815260200184815260200183815260200182815260200194505050505060405180910390a16123b781613457565b60606124006123c5846135a6565b6040518060400160405280600181526020017f2d000000000000000000000000000000000000000000000000000000000000008152506115ba565b90506124148161240f336110fd565b6115ba565b600460006124226003613325565b815260200190815260200160002090805190602001906124439291906137ad565b5061245934600a546133cf90919063ffffffff16565b600a81905550505050565b61246c613367565b73ffffffffffffffffffffffffffffffffffffffff1660008054906101000a900473ffffffffffffffffffffffffffffffffffffffff1673ffffffffffffffffffffffffffffffffffffffff161461252c576040517f08c379a00000000000000000000000000000000000000000000000000000000081526004018080602001828103825260208152602001807f4f776e61626c653a2063616c6c6572206973206e6f7420746865206f776e657281525060200191505060405180910390fd5b61253461382d565b600160008873ffffffffffffffffffffffffffffffffffffffff1673ffffffffffffffffffffffffffffffffffffffff1681526020019081526020016000206000858152602001908152602001600020604051806101000160405290816000820160009054906101000a900473ffffffffffffffffffffffffffffffffffffffff1673ffffffffffffffffffffffffffffffffffffffff1673ffffffffffffffffffffffffffffffffffffffff1681526020016001820154815260200160028201548152602001600382015481526020016004820154815260200160058201548152602001600682015481526020016008820154815250509050612636613888565b60056000858152602001908152602001600020604051806101000160405290816000820154815260200160018201548152602001600282018054600181600116156101000203166002900480601f0160208091040260200160405190810160405280929190818152602001828054600181600116156101000203166002900480156127025780601f106126d757610100808354040283529160200191612702565b820191906000526020600020905b8154815290600101906020018083116126e557829003601f168201915b50505050508152602001600382018054600181600116156101000203166002900480601f0160208091040260200160405190810160405280929190818152602001828054600181600116156101000203166002900480156127a45780601f10612779576101008083540402835291602001916127a4565b820191906000526020600020905b81548152906001019060200180831161278757829003601f168201915b5050505050815260200160048201548152602001600682015481526020016007820154815260200160088201548152505090506127e160086133b9565b6127e96138cd565b6040518060c001604052808a73ffffffffffffffffffffffffffffffffffffffff168152602001898152602001888152602001868152602001878152602001858152509050600061283a6008613325565b90507f2e8b336e470f9f2359dd05728efb5785e15e01d07e3d98a252a0783052aadc5b8a888884604051808573ffffffffffffffffffffffffffffffffffffffff16815260200184815260200183815260200182815260200194505050505060405180910390a1816007600083815260200190815260200160002060008201518160000160006101000a81548173ffffffffffffffffffffffffffffffffffffffff021916908373ffffffffffffffffffffffffffffffffffffffff1602179055506020820151816001015560408201518160020155606082015181600301556080820151816004015560a08201518160050155905050600084602001511115612b9757600061295860018660e001516133cf90919063ffffffff16565b90506129c08a600160008e73ffffffffffffffffffffffffffffffffffffffff1673ffffffffffffffffffffffffffffffffffffffff16815260200190815260200160002060008b8152602001908152602001600020600301546133cf90919063ffffffff16565b600160008d73ffffffffffffffffffffffffffffffffffffffff1673ffffffffffffffffffffffffffffffffffffffff16815260200190815260200160002060008a815260200190815260200160002060030181905550612a7d89600160008e73ffffffffffffffffffffffffffffffffffffffff1673ffffffffffffffffffffffffffffffffffffffff16815260200190815260200160002060008b8152602001908152602001600020600401546133cf90919063ffffffff16565b600160008d73ffffffffffffffffffffffffffffffffffffffff1673ffffffffffffffffffffffffffffffffffffffff16815260200190815260200160002060008a81526020019081526020016000206004018190555080600160008d73ffffffffffffffffffffffffffffffffffffffff1673ffffffffffffffffffffffffffffffffffffffff16815260200190815260200160002060008a81526020019081526020016000206008018190555081600160008d73ffffffffffffffffffffffffffffffffffffffff1673ffffffffffffffffffffffffffffffffffffffff16815260200190815260200160002060008a8152602001908152602001600020600701600083815260200190815260200160002081905550505b600083600001511115612c4c576000612bbe60018560a001516133cf90919063ffffffff16565b9050806005600089815260200190815260200160002060060181905550612c048a600560008a8152602001908152602001600020600701546133cf90919063ffffffff16565b60056000898152602001908152602001600020600701819055508160056000898152602001908152602001600020600501600083815260200190815260200160002081905550505b50505050505050505050565b6000612c646006613325565b905090565b612c71613367565b73ffffffffffffffffffffffffffffffffffffffff1660008054906101000a900473ffffffffffffffffffffffffffffffffffffffff1673ffffffffffffffffffffffffffffffffffffffff1614612d31576040517f08c379a00000000000000000000000000000000000000000000000000000000081526004018080602001828103825260208152602001807f4f776e61626c653a2063616c6c6572206973206e6f7420746865206f776e657281525060200191505060405180910390fd5b600073ffffffffffffffffffffffffffffffffffffffff168173ffffffffffffffffffffffffffffffffffffffff161415612db7576040517f08c379a00000000000000000000000000000000000000000000000000000000081526004018080602001828103825260268152602001806139676026913960400191505060405180910390fd5b8073ffffffffffffffffffffffffffffffffffffffff1660008054906101000a900473ffffffffffffffffffffffffffffffffffffffff1673ffffffffffffffffffffffffffffffffffffffff167f8be0079c531659141344cd1fd0a4f28419497f9722a3daafe3b4186f6b6457e060405160405180910390a3806000806101000a81548173ffffffffffffffffffffffffffffffffffffffff021916908373ffffffffffffffffffffffffffffffffffffffff16021790555050565b60118060000160009054906101000a900473ffffffffffffffffffffffffffffffffffffffff16908060010154908060020154905083565b612eb4613367565b73ffffffffffffffffffffffffffffffffffffffff1660008054906101000a900473ffffffffffffffffffffffffffffffffffffffff1673ffffffffffffffffffffffffffffffffffffffff1614612f74576040517f08c379a00000000000000000000000000000000000000000000000000000000081526004018080602001828103825260208152602001807f4f776e61626c653a2063616c6c6572206973206e6f7420746865206f776e657281525060200191505060405180910390fd5b612f7c61382d565b600160008573ffffffffffffffffffffffffffffffffffffffff1673ffffffffffffffffffffffffffffffffffffffff1681526020019081526020016000206000848152602001908152602001600020604051806101000160405290816000820160009054906101000a900473ffffffffffffffffffffffffffffffffffffffff1673ffffffffffffffffffffffffffffffffffffffff1673ffffffffffffffffffffffffffffffffffffffff168152602001600182015481526020016002820154815260200160038201548152602001600482015481526020016005820154815260200160068201548152602001600882015481525050905060008160200151116130d3576040517f08c379a000000000000000000000000000000000000000000000000000000000815260040180806020018281038252604e81526020018061398d604e913960600191505060405180910390fd5b816130ef8260600151836020015161336f90919063ffffffff16565b1015613146576040517f08c379a000000000000000000000000000000000000000000000000000000000815260040180806020018281038252604e815260200180613a51604e913960600191505060405180910390fd5b4782111561319f576040517f08c379a0000000000000000000000000000000000000000000000000000000008152600401808060200182810382526050815260200180613a016050913960600191505060405180910390fd5b806000015173ffffffffffffffffffffffffffffffffffffffff166108fc839081150290604051600060405180830381858888f193505050501580156131e9573d6000803e3d6000fd5b5061325082600160008773ffffffffffffffffffffffffffffffffffffffff1673ffffffffffffffffffffffffffffffffffffffff1681526020019081526020016000206000868152602001908152602001600020600501546133cf90919063ffffffff16565b600160008673ffffffffffffffffffffffffffffffffffffffff1673ffffffffffffffffffffffffffffffffffffffff1681526020019081526020016000206000858152602001908152602001600020600501819055506132bc82600a5461336f90919063ffffffff16565b600a819055507f85b03f39e425a93166a8c90f63b4c3e86fbc8cac80cf00da43f6e79c6fe008b3848484604051808473ffffffffffffffffffffffffffffffffffffffff168152602001838152602001828152602001935050505060405180910390a150505050565b600081600001549050919050565b6000600a8260f81c60ff1610156133555760308260f81c0160f81b9050613362565b60578260f81c0160f81b90505b919050565b600033905090565b60006133b183836040518060400160405280601e81526020017f536166654d6174683a207375627472616374696f6e206f766572666c6f7700008152506136ed565b905092915050565b6001816000016000828254019250508190555050565b60008082840190508381101561344d576040517f08c379a000000000000000000000000000000000000000000000000000000000815260040180806020018281038252601b8152602001807f536166654d6174683a206164646974696f6e206f766572666c6f77000000000081525060200191505060405180910390fd5b8091505092915050565b600e6001015481602001511115613506576040518060600160405280826000015173ffffffffffffffffffffffffffffffffffffffff168152602001826020015181526020018260400151815250600e60008201518160000160006101000a81548173ffffffffffffffffffffffffffffffffffffffff021916908373ffffffffffffffffffffffffffffffffffffffff16021790555060208201518160010155604082015181600201559050505b6040518060600160405280826000015173ffffffffffffffffffffffffffffffffffffffff168152602001826020015181526020018260400151815250601160008201518160000160006101000a81548173ffffffffffffffffffffffffffffffffffffffff021916908373ffffffffffffffffffffffffffffffffffffffff160217905550602082015181600101556040820151816002015590505050565b606060008214156135ee576040518060400160405280600181526020017f300000000000000000000000000000000000000000000000000000000000000081525090506136e8565b600082905060005b60008214613618578080600101915050600a828161361057fe5b0491506135f6565b60608167ffffffffffffffff8111801561363157600080fd5b506040519080825280601f01601f1916602001820160405280156136645781602001600182028036833780820191505090505b50905060006001830390508593505b600084146136e057600a848161368557fe5b0660300160f81b8282806001900393508151811061369f57fe5b60200101907effffffffffffffffffffffffffffffffffffffffffffffffffffffffffffff1916908160001a905350600a84816136d857fe5b049350613673565b819450505050505b919050565b600083831115829061379a576040517f08c379a00000000000000000000000000000000000000000000000000000000081526004018080602001828103825283818151815260200191508051906020019080838360005b8381101561375f578082015181840152602081019050613744565b50505050905090810190601f16801561378c5780820380516001836020036101000a031916815260200191505b509250505060405180910390fd5b5060008385039050809150509392505050565b828054600181600116156101000203166002900490600052602060002090601f016020900481019282601f106137ee57805160ff191683800117855561381c565b8280016001018555821561381c579182015b8281111561381b578251825591602001919060010190613800565b5b5090506138299190613919565b5090565b604051806101000160405280600073ffffffffffffffffffffffffffffffffffffffff168152602001600081526020016000815260200160008152602001600081526020016000815260200160008152602001600081525090565b60405180610100016040528060008152602001600081526020016060815260200160608152602001600081526020016000815260200160008152602001600081525090565b6040518060c00160405280600073ffffffffffffffffffffffffffffffffffffffff16815260200160008152602001600081526020016000815260200160008152602001600081525090565b5b8082111561393257600081600090555060010161391a565b509056fe546865204944206f6620746865206e65787420646f6e6174696f6e20746f20657870656e6420697320696e76616c69644f776e61626c653a206e6577206f776e657220697320746865207a65726f20616464726573734120646f6e6174696f6e2077697468207468652070726f7669646564206164647265737320616e642f6f7220646f6e6174696f6e206e756d62657220636f756c64206e6f7420626520666f756e64446f6e6174696f6e20616d6f756e74206d7573742062652067726561746572207468616e203054686520636f6e747261637420646f6573206e6f74206861766520656e6f7567682062616c616e636520746f206d616b65206120726566756e64206f6620746865207265717565737465642073697a65596f75206d6179206e6f7420726566756e64206d6f7265207468616e207468652076616c7565206f662074686520646f6e6174696f6e206c65737320616e7920657870656e64656469747572657354686520657870656e6469747572652076616c756520696e20455448206d7573742062652067726561746572207468616e203054686520657870656e6469747572652076616c756520696e20555344206d7573742062652067726561746572207468616e2030596f75206d7573742070726f7669646520612076616c75652067726561746572207468616e207468652063757272656e74206e65787420646f6e6174696f6e20746f20657870656e6454686520657870656e646974757265206d757374206265206c657373207468616e206f7220657175616c20746f207468652062616c616e6365206f662074686520636f6e74726163742ea264697066735822122025a18246466e701d2702abbc02984613526698bf3ac3603b03f8f133980c099f64736f6c634300060c0033",
  "immutableReferences": {},
  "source": "/* solium-disable no-trailing-whitespace, security/no-block-members */\n// SPDX-License-Identifier: MIT\npragma solidity >= 0.6.0 < 0.7.0;\n\nimport \"../node_modules/@openzeppelin/contracts/access/Ownable.sol\";\nimport \"../node_modules/@openzeppelin/contracts/utils/Pausable.sol\";\nimport \"../node_modules/@openzeppelin/contracts/utils/Counters.sol\";\nimport \"../node_modules/@openzeppelin/contracts/utils/Strings.sol\";\nimport \"../node_modules/@openzeppelin/contracts/math/SafeMath.sol\";\n\ncontract StandardCharity is Ownable, Pausable {\n  using Counters for Counters.Counter;\n  using Strings for *;\n  using SafeMath for uint256;\n\n  mapping (address => mapping (uint256 => Donation)) public donations;\n  mapping (address => Counters.Counter) public numDonationsByUser;\n  Counters.Counter public totalNumDonations;\n  /**\n   * @notice The donationTracker mapping format is as follows:\n   * {total donation number for the user}-{donator address without leading 0x}\n   *\n   * So, for example, if the first donation that this contract receives\n   * is from address 0xA7a5F8EA98C9b345075dDa7442A833189Ce3717e, the \n   * donationTracker mapping entry will look like this:\n   * 1 => 1-a7a5f8ea98c9b345075dda7442a833189ce3717e\n   *\n   * Note how the address is converted to lower case.\n   */\n  mapping (uint256 => string) public donationTracker;\n  \n  mapping (uint256 => Expenditure) public expenditures;\n  Counters.Counter public totalNumExpenditures;\n\n  mapping (uint256 => ExpendedDonation) public expendedDonations;\n  Counters.Counter totalNumExpendedDonations;\n\n  uint256 public nextDonationToExpend;\n\n  uint256 public totalDonationsETH;\n  uint256 public totalExpendedETH;\n  uint256 public totalExpendedUSD;\n  // Denoninated as *10, i.e. 50 = 5.0\n  uint256 public totalPlatesDeployed;\n\n  SpotlightDonation public maxDonation;\n  SpotlightDonation public latestDonation;\n\n  /// @param donationNumber The donation number for this particular address\n  struct Donation {\n    address donator;\n    uint256 value;\n    uint256 timestamp;\n    uint256 valueExpendedETH;\n    uint256 valueExpendedUSD;\n    uint256 valueRefundedETH;\n    uint256 donationNumber;\n    mapping (uint256 => uint256) expendedDonationIDs;\n    uint256 numExpenditures;\n  }\n\n  struct SpotlightDonation {\n    address donator;\n    uint256 value;\n    uint256 timestamp;\n  }\n\n  /// @param donationNumber The donation number for this particular address\n  /// @param platedDeployed Denoninated as *10, i.e. 50 = 5.0\n  struct ExpendedDonation {\n    address donator;\n    uint256 valueExpendedETH;\n    uint256 valueExpendedUSD;\n    uint256 expenditureNumber;\n    uint256 donationNumber;\n    uint256 platesDeployed;\n  }\n\n  /// @param videoHash The hash of the video file associated with this donation. The\n  /// XXHash algorithm is used to produce a 32 bit hash with a seed of 0xCAFEBABE\n  /// @param valueExpendedUSD Value in cents\n  /// @param platedDeployed Denoninated as *10, i.e. 50 = 5.0\n  struct Expenditure {\n    uint256 valueExpendedETH;\n    uint256 valueExpendedUSD;\n    string videoHash;\n    string receiptHash;\n    uint256 timestamp;\n    mapping (uint256 => uint256) expendedDonationIDs;\n    uint256 numExpendedDonations;\n    uint256 valueExpendedByDonations;\n    uint256 platesDeployed;\n  }\n\n  event LogNewDonation(address donator, uint256 donationNumber, uint256 value, uint256 overallDonationNumber);\n  event LogNewExpenditure(uint256 expenditureNumber, uint256 valueETH);\n  event LogNewExpendedDonation(address donator, uint256 donationNumber, uint256 expeditureNumber, uint256 expendedDonationNumber);\n  event LogNewRefund(address donator, uint256 donationNumber, uint256 valueETH);\n  event LogNewNextDonationToExpend(uint256 nextDonationToExpend);\n\n  constructor() public {\n    nextDonationToExpend = 1;\n  }\n\n  function donate() public payable {\n    require(msg.value > 0, 'Donation amount must be greater than 0');\n\n    numDonationsByUser[msg.sender].increment();\n\n    uint256 donationNumber = numDonationsByUser[msg.sender].current();\n\n    Donation memory _donation = Donation({\n      donator: msg.sender,\n      value: msg.value,\n      timestamp: now,\n      valueExpendedETH: 0,\n      valueExpendedUSD: 0,\n      donationNumber: donationNumber,\n      numExpenditures: 0,\n      valueRefundedETH: 0\n    });\n\n    donations[msg.sender][donationNumber] = _donation;\n\n    totalNumDonations.increment();\n\n    emit LogNewDonation(msg.sender, donationNumber, msg.value, totalNumDonations.current());\n\n    updateStoredDonations(_donation);\n\n    string memory donationNumWithDash = concat(\n      donationNumber.toString(),\n      '-'\n    );\n\n    donationTracker[totalNumDonations.current()] = concat(\n      donationNumWithDash,\n      toAsciiString(msg.sender)\n    );\n\n    totalDonationsETH = totalDonationsETH.add(msg.value);\n  }\n\n  /// @param _valueUSD Denominated in cents\n  /// @param _platesDeployed Denoninated as *10, i.e. 50 = 5.0\n  function createExpenditure(\n    string memory _videoHash,\n    string memory _receiptHash,\n    uint256 _valueUSD,\n    uint256 _valueETH,\n    uint256 _platesDeployed\n  ) public onlyOwner() {\n    require(\n      _valueETH > 0,\n      'The expenditure value in ETH must be greater than 0'\n    );\n\n    require(\n      _valueUSD > 0,\n      'The expenditure value in USD must be greater than 0'\n    );\n\n    require(\n      isTextEmpty(_videoHash) == false,\n      'A video hash must be supplied'\n    );\n\n    require(\n      isTextEmpty(_receiptHash) == false,\n      'A receipt hash must be supplied'\n    );\n\n    require(\n      address(this).balance >= _valueETH,\n      'The expenditure must be less than or equal to the balance of the contract.'\n    );\n\n    totalNumExpenditures.increment();\n\n    expenditures[totalNumExpenditures.current()] = Expenditure({\n      valueExpendedETH: _valueETH,\n      valueExpendedUSD: _valueUSD,\n      videoHash: _videoHash,\n      receiptHash: _receiptHash,\n      timestamp: now,\n      numExpendedDonations: 0,\n      valueExpendedByDonations: 0,\n      platesDeployed: _platesDeployed\n    });\n\n    totalExpendedETH = totalExpendedETH.add(_valueETH);\n\n    totalExpendedUSD = totalExpendedUSD.add(_valueUSD);\n\n    totalPlatesDeployed = totalPlatesDeployed.add(_platesDeployed);\n\n    payable(owner()).transfer(_valueETH);\n\n    emit LogNewExpenditure(totalNumExpenditures.current(), _valueETH);\n  }\n\n  function setNextDonationToExpend(uint256 _nextDonationToExpend) public onlyOwner() {\n    require(\n      _nextDonationToExpend > nextDonationToExpend,\n      'You must provide a value greater than the current next donation to expend'\n    );\n    \n    string memory lastDonation = donationTracker[_nextDonationToExpend.sub(1)];\n\n    string memory thisDonation = donationTracker[_nextDonationToExpend];\n\n    if (isTextEmpty(lastDonation) == true && isTextEmpty(thisDonation) == true) {\n      revert('The ID of the next donation to expend is invalid');\n    }\n\n    nextDonationToExpend = _nextDonationToExpend;\n\n    emit LogNewNextDonationToExpend(_nextDonationToExpend);\n  }\n\n  /// @param _platesDeployed Denoninated as *10, i.e. 50 = 5.0\n  function createExpendedDonation(\n    address _donator,\n    uint256 _valueExpendedETH,\n    uint256 _valueExpendedUSD,\n    uint256 _donationNumber,\n    uint256 _expeditureNumber,\n    uint256 _platesDeployed\n  ) public onlyOwner() {\n    Donation memory donation = donations[_donator][_donationNumber];\n\n    Expenditure memory expenditure = expenditures[_expeditureNumber];\n\n    totalNumExpendedDonations.increment();\n\n    ExpendedDonation memory expendedDonation = ExpendedDonation({\n      donator: _donator,\n      donationNumber: _donationNumber,\n      valueExpendedETH: _valueExpendedETH,\n      valueExpendedUSD: _valueExpendedUSD,\n      expenditureNumber: _expeditureNumber,\n      platesDeployed: _platesDeployed\n    });\n\n    uint256 currentExpendedDonation = totalNumExpendedDonations.current();\n\n    emit LogNewExpendedDonation(_donator, _donationNumber, _expeditureNumber, currentExpendedDonation);\n\n    expendedDonations[currentExpendedDonation] = expendedDonation;\n\n    // Add the donation expenditure to the donation if the donation exists\n\n    if (donation.value > 0) {\n      uint256 numDonationExpenditures = donation.numExpenditures.add(1);\n\n      donations[_donator][_donationNumber].valueExpendedETH =\n        donations[_donator][_donationNumber].valueExpendedETH.add(_valueExpendedETH);\n\n      donations[_donator][_donationNumber].valueExpendedUSD =\n        donations[_donator][_donationNumber].valueExpendedUSD.add(_valueExpendedUSD);\n\n      donations[_donator][_donationNumber].numExpenditures = numDonationExpenditures;\n\n      donations[_donator][_donationNumber].expendedDonationIDs[numDonationExpenditures] = currentExpendedDonation;\n    }\n\n    // Add the donation expenditure to the expenditure if the expenditure exists\n\n    if (expenditure.valueExpendedETH > 0) {\n      uint256 numExpendedDonations = expenditure.numExpendedDonations.add(1);\n\n      expenditures[_expeditureNumber].numExpendedDonations = numExpendedDonations;\n\n      expenditures[_expeditureNumber].valueExpendedByDonations =\n        expenditures[_expeditureNumber].valueExpendedByDonations.add(_valueExpendedETH);\n\n      expenditures[_expeditureNumber].expendedDonationIDs[numExpendedDonations] = currentExpendedDonation;\n    }\n  }\n\n  /// @dev Returns an ID (uint256) to be used to get a value from the expendedDonations mapping\n  function getExpendedDonationIDForDonation(\n    address _address,\n    uint256 _donationNumber,\n    uint256 _expenditureNumber\n  ) public view returns (uint256) {\n    return donations[_address][_donationNumber].expendedDonationIDs[_expenditureNumber];\n  }\n\n  /// @dev Returns an ID (uint256) to be used to get a value from the expendedDonations mapping\n  function getExpendedDonationIDForExpenditure(\n    uint256 _expenditureNumber,\n    uint256 _expendedDonationNumber\n  ) public view returns (uint256) {\n    return expenditures[_expenditureNumber].expendedDonationIDs[_expendedDonationNumber];\n  }\n\n  function refundDonation(\n    address _address,\n    uint256 _donationNumber,\n    uint256 _valueETHToRefund\n  ) public onlyOwner() {\n    Donation memory donation = donations[_address][_donationNumber];\n\n    require(\n      donation.value > 0,\n      'A donation with the provided address and/or donation number could not be found'\n    );\n\n    require(\n      donation.value.sub(donation.valueExpendedETH) >= _valueETHToRefund,\n      'You may not refund more than the value of the donation less any expendeditures'\n    );\n\n    // This should never happen, but it's placed here as a check just in case.\n    require(\n      _valueETHToRefund <= address(this).balance,\n      'The contract does not have enough balance to make a refund of the requested size'\n    );\n\n    payable(donation.donator).transfer(_valueETHToRefund);\n\n    donations[_address][_donationNumber].valueRefundedETH =\n      donations[_address][_donationNumber].valueRefundedETH.add(_valueETHToRefund);\n\n    totalDonationsETH = totalDonationsETH.sub(_valueETHToRefund);\n\n    emit LogNewRefund(_address, _donationNumber, _valueETHToRefund);\n  }\n\n  function toAsciiString(address x) public pure returns (string memory) {\n    bytes memory s = new bytes(40);\n\n    for (uint i = 0; i < 20; i++) {\n        byte b = byte(uint8(uint(x) / (2**(8*(19 - i)))));\n        byte hi = byte(uint8(b) / 16);\n        byte lo = byte(uint8(b) - 16 * uint8(hi));\n        s[2*i] = char(hi);\n        s[2*i+1] = char(lo);            \n    }\n\n    return string(s);\n  }\n\n  function char(byte b) internal pure returns (byte c) {\n      if (uint8(b) < 10) return byte(uint8(b) + 0x30);\n      else return byte(uint8(b) + 0x57);\n  }\n\n  function concat(\n    string memory _base,\n    string memory _value\n  ) public pure returns (string memory) {\n    bytes memory _baseBytes = bytes(_base);\n    bytes memory _valueBytes = bytes(_value);\n\n    string memory _tmpValue = new string(\n      _baseBytes.length +\n      _valueBytes.length\n    );\n    \n    bytes memory _newValue = bytes(_tmpValue);\n\n    uint i;\n    uint j;\n\n    for (i = 0; i < _baseBytes.length; i++) {\n      _newValue[j++] = _baseBytes[i];\n    }\n\n    for (i = 0; i < _valueBytes.length; i++) {\n      _newValue[j++] = _valueBytes[i];\n    }\n\n    return string(_newValue);\n  }\n\n  function updateStoredDonations(Donation memory _donation) internal {\n    if (_donation.value > maxDonation.value) {\n      maxDonation = SpotlightDonation({\n        donator: _donation.donator,\n        value: _donation.value,\n        timestamp: _donation.timestamp\n      });\n    }\n\n    latestDonation = SpotlightDonation({\n      donator: _donation.donator,\n      value: _donation.value,\n      timestamp: _donation.timestamp\n    });\n  }\n\n  receive() external payable {\n    if (msg.value > 0) {\n      payable(owner()).transfer(msg.value);\n    }\n  }\n\n  function getTotalNumDonations() public view returns (uint256) {\n    return totalNumDonations.current();\n  }\n\n  function getTotalNumExpenditures() public view returns (uint256) {\n    return totalNumExpenditures.current();\n  }\n\n  function getTotalNumExpendedDonations() public view returns (uint256) {\n    return totalNumExpendedDonations.current();\n  }\n\n  function getContractBalance() public view returns (uint256) {\n    return address(this).balance;\n  }\n\n  /// @notice Check to see if a string is empty\n  /// @param _string A string for which to check whether it is empty\n  /// @return a boolean value that expresses whether the string is empty\n  function isTextEmpty(string memory _string) public pure returns(bool) {\n    return bytes(_string).length == 0;\n  }\n}\n",
  "sourcePath": "/Users/johnwall/Desktop/CryptOpinion/Freelance/StandardCharity/eth-contracts/contracts/StandardCharity.sol",
  "compiler": {
    "name": "solc",
    "version": "0.6.12+commit.27d51765.Emscripten.clang"
  },
  "schemaVersion": "3.2.3",
  "updatedAt": "2020-09-02T03:37:54.158Z",
  "networkType": "ethereum",
  "devdoc": {
    "kind": "dev",
    "methods": {
      "createExpendedDonation(address,uint256,uint256,uint256,uint256,uint256)": {
        "params": {
          "_platesDeployed": "Denoninated as *10, i.e. 50 = 5.0"
        }
      },
      "createExpenditure(string,string,uint256,uint256,uint256)": {
        "params": {
          "_platesDeployed": "Denoninated as *10, i.e. 50 = 5.0",
          "_valueUSD": "Denominated in cents"
        }
      },
      "getExpendedDonationIDForDonation(address,uint256,uint256)": {
        "details": "Returns an ID (uint256) to be used to get a value from the expendedDonations mapping"
      },
      "getExpendedDonationIDForExpenditure(uint256,uint256)": {
        "details": "Returns an ID (uint256) to be used to get a value from the expendedDonations mapping"
      },
      "isTextEmpty(string)": {
        "params": {
          "_string": "A string for which to check whether it is empty"
        },
        "returns": {
          "_0": "a boolean value that expresses whether the string is empty"
        }
      },
      "owner()": {
        "details": "Returns the address of the current owner."
      },
      "paused()": {
        "details": "Returns true if the contract is paused, and false otherwise."
      },
      "renounceOwnership()": {
        "details": "Leaves the contract without owner. It will not be possible to call `onlyOwner` functions anymore. Can only be called by the current owner. NOTE: Renouncing ownership will leave the contract without an owner, thereby removing any functionality that is only available to the owner."
      },
      "transferOwnership(address)": {
        "details": "Transfers ownership of the contract to a new account (`newOwner`). Can only be called by the current owner."
      }
    },
    "version": 1
  },
  "userdoc": {
    "kind": "user",
    "methods": {
      "donationTracker(uint256)": {
        "notice": "The donationTracker mapping format is as follows: {total donation number for the user}-{donator address without leading 0x} So, for example, if the first donation that this contract receives is from address 0xA7a5F8EA98C9b345075dDa7442A833189Ce3717e, the  donationTracker mapping entry will look like this: 1 => 1-a7a5f8ea98c9b345075dda7442a833189ce3717e Note how the address is converted to lower case."
      },
      "isTextEmpty(string)": {
        "notice": "Check to see if a string is empty"
      }
    },
    "version": 1
  }
}