{
  "contractName": "StandardCharity",
  "abi": [
    {
      "inputs": [],
      "stateMutability": "nonpayable",
      "type": "constructor"
    },
    {
      "anonymous": false,
      "inputs": [
        {
          "indexed": false,
          "internalType": "address",
          "name": "donator",
          "type": "address"
        },
        {
          "indexed": false,
          "internalType": "uint256",
          "name": "donationNumber",
          "type": "uint256"
        },
        {
          "indexed": false,
          "internalType": "uint256",
          "name": "value",
          "type": "uint256"
        }
      ],
      "name": "LogNewDonation",
      "type": "event"
    },
    {
      "anonymous": false,
      "inputs": [
        {
          "indexed": false,
          "internalType": "address",
          "name": "donator",
          "type": "address"
        },
        {
          "indexed": false,
          "internalType": "uint256",
          "name": "donationNumber",
          "type": "uint256"
        },
        {
          "indexed": false,
          "internalType": "uint256",
          "name": "expeditureNumber",
          "type": "uint256"
        }
      ],
      "name": "LogNewExpendedDonation",
      "type": "event"
    },
    {
      "anonymous": false,
      "inputs": [
        {
          "indexed": false,
          "internalType": "uint256",
          "name": "valueETH",
          "type": "uint256"
        }
      ],
      "name": "LogNewExpenditure",
      "type": "event"
    },
    {
      "anonymous": false,
      "inputs": [
        {
          "indexed": false,
          "internalType": "address",
          "name": "donator",
          "type": "address"
        },
        {
          "indexed": false,
          "internalType": "uint256",
          "name": "donationNumber",
          "type": "uint256"
        },
        {
          "indexed": false,
          "internalType": "uint256",
          "name": "valueETH",
          "type": "uint256"
        }
      ],
      "name": "LogNewRefund",
      "type": "event"
    },
    {
      "anonymous": false,
      "inputs": [
        {
          "indexed": true,
          "internalType": "address",
          "name": "previousOwner",
          "type": "address"
        },
        {
          "indexed": true,
          "internalType": "address",
          "name": "newOwner",
          "type": "address"
        }
      ],
      "name": "OwnershipTransferred",
      "type": "event"
    },
    {
      "anonymous": false,
      "inputs": [
        {
          "indexed": false,
          "internalType": "address",
          "name": "account",
          "type": "address"
        }
      ],
      "name": "Paused",
      "type": "event"
    },
    {
      "anonymous": false,
      "inputs": [
        {
          "indexed": false,
          "internalType": "address",
          "name": "account",
          "type": "address"
        }
      ],
      "name": "Unpaused",
      "type": "event"
    },
    {
      "inputs": [
        {
          "internalType": "uint256",
          "name": "",
          "type": "uint256"
        }
      ],
      "name": "donationTracker",
      "outputs": [
        {
          "internalType": "string",
          "name": "",
          "type": "string"
        }
      ],
      "stateMutability": "view",
      "type": "function"
    },
    {
      "inputs": [
        {
          "internalType": "address",
          "name": "",
          "type": "address"
        },
        {
          "internalType": "uint256",
          "name": "",
          "type": "uint256"
        }
      ],
      "name": "donations",
      "outputs": [
        {
          "internalType": "address",
          "name": "donator",
          "type": "address"
        },
        {
          "internalType": "uint256",
          "name": "value",
          "type": "uint256"
        },
        {
          "internalType": "uint256",
          "name": "timestamp",
          "type": "uint256"
        },
        {
          "internalType": "uint256",
          "name": "valueExpendedETH",
          "type": "uint256"
        },
        {
          "internalType": "uint256",
          "name": "valueExpendedUSD",
          "type": "uint256"
        },
        {
          "internalType": "uint256",
          "name": "valueRefundedETH",
          "type": "uint256"
        },
        {
          "internalType": "uint256",
          "name": "donationNumber",
          "type": "uint256"
        },
        {
          "internalType": "uint256",
          "name": "numExpenditures",
          "type": "uint256"
        }
      ],
      "stateMutability": "view",
      "type": "function"
    },
    {
      "inputs": [
        {
          "internalType": "uint256",
          "name": "",
          "type": "uint256"
        }
      ],
      "name": "expendedDonations",
      "outputs": [
        {
          "internalType": "address",
          "name": "donator",
          "type": "address"
        },
        {
          "internalType": "uint256",
          "name": "valueExpendedETH",
          "type": "uint256"
        },
        {
          "internalType": "uint256",
          "name": "valueExpendedUSD",
          "type": "uint256"
        },
        {
          "internalType": "uint256",
          "name": "expenditureNumber",
          "type": "uint256"
        },
        {
          "internalType": "uint256",
          "name": "donationNumber",
          "type": "uint256"
        }
      ],
      "stateMutability": "view",
      "type": "function"
    },
    {
      "inputs": [
        {
          "internalType": "uint256",
          "name": "",
          "type": "uint256"
        }
      ],
      "name": "expenditures",
      "outputs": [
        {
          "internalType": "uint256",
          "name": "valueExpendedETH",
          "type": "uint256"
        },
        {
          "internalType": "uint256",
          "name": "valueExpendedUSD",
          "type": "uint256"
        },
        {
          "internalType": "string",
          "name": "videoHash",
          "type": "string"
        },
        {
          "internalType": "string",
          "name": "receiptHash",
          "type": "string"
        },
        {
          "internalType": "uint256",
          "name": "timestamp",
          "type": "uint256"
        },
        {
          "internalType": "uint256",
          "name": "numExpendedDonations",
          "type": "uint256"
        },
        {
          "internalType": "uint256",
          "name": "valueExpendedByDonations",
          "type": "uint256"
        }
      ],
      "stateMutability": "view",
      "type": "function"
    },
    {
      "inputs": [],
      "name": "latestDonation",
      "outputs": [
        {
          "internalType": "address",
          "name": "donator",
          "type": "address"
        },
        {
          "internalType": "uint256",
          "name": "value",
          "type": "uint256"
        },
        {
          "internalType": "uint256",
          "name": "timestamp",
          "type": "uint256"
        }
      ],
      "stateMutability": "view",
      "type": "function"
    },
    {
      "inputs": [],
      "name": "maxDonation",
      "outputs": [
        {
          "internalType": "address",
          "name": "donator",
          "type": "address"
        },
        {
          "internalType": "uint256",
          "name": "value",
          "type": "uint256"
        },
        {
          "internalType": "uint256",
          "name": "timestamp",
          "type": "uint256"
        }
      ],
      "stateMutability": "view",
      "type": "function"
    },
    {
      "inputs": [],
      "name": "nextDonationToExpend",
      "outputs": [
        {
          "internalType": "uint256",
          "name": "",
          "type": "uint256"
        }
      ],
      "stateMutability": "view",
      "type": "function"
    },
    {
      "inputs": [
        {
          "internalType": "address",
          "name": "",
          "type": "address"
        }
      ],
      "name": "numDonationsByUser",
      "outputs": [
        {
          "internalType": "uint256",
          "name": "_value",
          "type": "uint256"
        }
      ],
      "stateMutability": "view",
      "type": "function"
    },
    {
      "inputs": [],
      "name": "owner",
      "outputs": [
        {
          "internalType": "address",
          "name": "",
          "type": "address"
        }
      ],
      "stateMutability": "view",
      "type": "function"
    },
    {
      "inputs": [],
      "name": "paused",
      "outputs": [
        {
          "internalType": "bool",
          "name": "",
          "type": "bool"
        }
      ],
      "stateMutability": "view",
      "type": "function"
    },
    {
      "inputs": [],
      "name": "renounceOwnership",
      "outputs": [],
      "stateMutability": "nonpayable",
      "type": "function"
    },
    {
      "inputs": [],
      "name": "totalDonationsETH",
      "outputs": [
        {
          "internalType": "uint256",
          "name": "",
          "type": "uint256"
        }
      ],
      "stateMutability": "view",
      "type": "function"
    },
    {
      "inputs": [],
      "name": "totalExpendedETH",
      "outputs": [
        {
          "internalType": "uint256",
          "name": "",
          "type": "uint256"
        }
      ],
      "stateMutability": "view",
      "type": "function"
    },
    {
      "inputs": [],
      "name": "totalExpendedUSD",
      "outputs": [
        {
          "internalType": "uint256",
          "name": "",
          "type": "uint256"
        }
      ],
      "stateMutability": "view",
      "type": "function"
    },
    {
      "inputs": [],
      "name": "totalNumDonations",
      "outputs": [
        {
          "internalType": "uint256",
          "name": "_value",
          "type": "uint256"
        }
      ],
      "stateMutability": "view",
      "type": "function"
    },
    {
      "inputs": [],
      "name": "totalNumExpenditures",
      "outputs": [
        {
          "internalType": "uint256",
          "name": "_value",
          "type": "uint256"
        }
      ],
      "stateMutability": "view",
      "type": "function"
    },
    {
      "inputs": [
        {
          "internalType": "address",
          "name": "newOwner",
          "type": "address"
        }
      ],
      "name": "transferOwnership",
      "outputs": [],
      "stateMutability": "nonpayable",
      "type": "function"
    },
    {
      "stateMutability": "payable",
      "type": "receive"
    },
    {
      "inputs": [],
      "name": "donate",
      "outputs": [],
      "stateMutability": "payable",
      "type": "function"
    },
    {
      "inputs": [
        {
          "internalType": "string",
          "name": "_videoHash",
          "type": "string"
        },
        {
          "internalType": "string",
          "name": "_receiptHash",
          "type": "string"
        },
        {
          "internalType": "uint256",
          "name": "_valueUSD",
          "type": "uint256"
        },
        {
          "internalType": "uint256",
          "name": "_valueETH",
          "type": "uint256"
        }
      ],
      "name": "createExpenditure",
      "outputs": [],
      "stateMutability": "nonpayable",
      "type": "function"
    },
    {
      "inputs": [
        {
          "internalType": "uint256",
          "name": "_nextDonationToExpend",
          "type": "uint256"
        }
      ],
      "name": "setNextDonationToExpend",
      "outputs": [],
      "stateMutability": "nonpayable",
      "type": "function"
    },
    {
      "inputs": [
        {
          "internalType": "address",
          "name": "_donator",
          "type": "address"
        },
        {
          "internalType": "uint256",
          "name": "_valueExpendedETH",
          "type": "uint256"
        },
        {
          "internalType": "uint256",
          "name": "_valueExpendedUSD",
          "type": "uint256"
        },
        {
          "internalType": "uint256",
          "name": "_donationNumber",
          "type": "uint256"
        },
        {
          "internalType": "uint256",
          "name": "_expeditureNumber",
          "type": "uint256"
        }
      ],
      "name": "createExpendedDonation",
      "outputs": [],
      "stateMutability": "nonpayable",
      "type": "function"
    },
    {
      "inputs": [
        {
          "internalType": "address",
          "name": "_address",
          "type": "address"
        },
        {
          "internalType": "uint256",
          "name": "_donationNumber",
          "type": "uint256"
        },
        {
          "internalType": "uint256",
          "name": "_expenditureNumber",
          "type": "uint256"
        }
      ],
      "name": "getExpendedDonationIDForDonation",
      "outputs": [
        {
          "internalType": "uint256",
          "name": "",
          "type": "uint256"
        }
      ],
      "stateMutability": "view",
      "type": "function"
    },
    {
      "inputs": [
        {
          "internalType": "uint256",
          "name": "_expenditureNumber",
          "type": "uint256"
        },
        {
          "internalType": "uint256",
          "name": "_expendedDonationNumber",
          "type": "uint256"
        }
      ],
      "name": "getExpendedDonationIDForExpenditure",
      "outputs": [
        {
          "internalType": "uint256",
          "name": "",
          "type": "uint256"
        }
      ],
      "stateMutability": "view",
      "type": "function"
    },
    {
      "inputs": [
        {
          "internalType": "address",
          "name": "_address",
          "type": "address"
        },
        {
          "internalType": "uint256",
          "name": "_donationNumber",
          "type": "uint256"
        },
        {
          "internalType": "uint256",
          "name": "_valueETHToRefund",
          "type": "uint256"
        }
      ],
      "name": "refundDonation",
      "outputs": [],
      "stateMutability": "nonpayable",
      "type": "function"
    },
    {
      "inputs": [
        {
          "internalType": "address",
          "name": "x",
          "type": "address"
        }
      ],
      "name": "toAsciiString",
      "outputs": [
        {
          "internalType": "string",
          "name": "",
          "type": "string"
        }
      ],
      "stateMutability": "pure",
      "type": "function"
    },
    {
      "inputs": [
        {
          "internalType": "string",
          "name": "_base",
          "type": "string"
        },
        {
          "internalType": "string",
          "name": "_value",
          "type": "string"
        }
      ],
      "name": "concat",
      "outputs": [
        {
          "internalType": "string",
          "name": "",
          "type": "string"
        }
      ],
      "stateMutability": "pure",
      "type": "function"
    },
    {
      "inputs": [],
      "name": "getTotalNumDonations",
      "outputs": [
        {
          "internalType": "uint256",
          "name": "",
          "type": "uint256"
        }
      ],
      "stateMutability": "view",
      "type": "function"
    },
    {
      "inputs": [],
      "name": "getTotalNumExpenditures",
      "outputs": [
        {
          "internalType": "uint256",
          "name": "",
          "type": "uint256"
        }
      ],
      "stateMutability": "view",
      "type": "function"
    },
    {
      "inputs": [],
      "name": "getTotalNumExpendedDonations",
      "outputs": [
        {
          "internalType": "uint256",
          "name": "",
          "type": "uint256"
        }
      ],
      "stateMutability": "view",
      "type": "function"
    },
    {
      "inputs": [],
      "name": "getContractBalance",
      "outputs": [
        {
          "internalType": "uint256",
          "name": "",
          "type": "uint256"
        }
      ],
      "stateMutability": "view",
      "type": "function"
    },
    {
      "inputs": [
        {
          "internalType": "string",
          "name": "_string",
          "type": "string"
        }
      ],
      "name": "isTextEmpty",
      "outputs": [
        {
          "internalType": "bool",
          "name": "",
          "type": "bool"
        }
      ],
      "stateMutability": "pure",
      "type": "function"
    }
  ],
  "bytecode": "0x60806040523480156200001157600080fd5b50600062000024620000ea60201b60201c565b9050806000806101000a81548173ffffffffffffffffffffffffffffffffffffffff021916908373ffffffffffffffffffffffffffffffffffffffff1602179055508073ffffffffffffffffffffffffffffffffffffffff16600073ffffffffffffffffffffffffffffffffffffffff167f8be0079c531659141344cd1fd0a4f28419497f9722a3daafe3b4186f6b6457e060405160405180910390a35060008060146101000a81548160ff0219169083151502179055506001600981905550620000f2565b600033905090565b613e2080620001026000396000f3fe6080604052600436106101dc5760003560e01c8063a40dd85c11610102578063db3487ac11610095578063f1e96f0711610064578063f1e96f0714610ead578063f2fde38b14610ed8578063f9cc8dee14610f29578063fdcfc31914610f785761023b565b8063db3487ac14610c8c578063e3a0296e14610cb7578063e756673914610e2a578063ed88c68e14610ea35761023b565b8063b4a848f8116100d1578063b4a848f814610be0578063b55dcd9d14610c0b578063c6f5d54c14610c36578063d033bb7514610c615761023b565b8063a40dd85c14610a4d578063a8681fd914610b2b578063af2754bb14610b7a578063af64b66314610ba55761023b565b80636f9fb98a1161017a5780638da5cb5b116101495780638da5cb5b1461082157806392edc1d61461086257806395086ed1146108e3578063981376b7146109995761023b565b80636f9fb98a146105dc57806370ece2af14610607578063715018a61461063257806389c19ddb146106495761023b565b80632c6e7598116101b65780632c6e7598146103495780633af48e321461041357806349754e51146105565780635c975abb146105af5761023b565b80631a4dddab1461024057806321617dad1461026b5780632ab20123146102d05761023b565b3661023b576000341115610239576101f2610fdd565b73ffffffffffffffffffffffffffffffffffffffff166108fc349081150290604051600060405180830381858888f19350505050158015610237573d6000803e3d6000fd5b505b005b600080fd5b34801561024c57600080fd5b50610255611006565b6040518082815260200191505060405180910390f35b34801561027757600080fd5b506102ba6004803603602081101561028e57600080fd5b81019080803573ffffffffffffffffffffffffffffffffffffffff169060200190929190505050611017565b6040518082815260200191505060405180910390f35b3480156102dc57600080fd5b50610333600480360360608110156102f357600080fd5b81019080803573ffffffffffffffffffffffffffffffffffffffff1690602001909291908035906020019092919080359060200190929190505050611035565b6040518082815260200191505060405180910390f35b34801561035557600080fd5b506103986004803603602081101561036c57600080fd5b81019080803573ffffffffffffffffffffffffffffffffffffffff1690602001909291905050506110a5565b6040518080602001828103825283818151815260200191508051906020019080838360005b838110156103d85780820151818401526020810190506103bd565b50505050905090810190601f1680156104055780820380516001836020036101000a031916815260200191505b509250505060405180910390f35b34801561041f57600080fd5b5061044c6004803603602081101561043657600080fd5b8101908080359060200190929190505050611208565b604051808881526020018781526020018060200180602001868152602001858152602001848152602001838103835288818151815260200191508051906020019080838360005b838110156104ae578082015181840152602081019050610493565b50505050905090810190601f1680156104db5780820380516001836020036101000a031916815260200191505b50838103825287818151815260200191508051906020019080838360005b838110156105145780820151818401526020810190506104f9565b50505050905090810190601f1680156105415780820380516001836020036101000a031916815260200191505b50995050505050505050505060405180910390f35b34801561056257600080fd5b506105996004803603604081101561057957600080fd5b81019080803590602001909291908035906020019092919050505061137a565b6040518082815260200191505060405180910390f35b3480156105bb57600080fd5b506105c46113ac565b60405180821515815260200191505060405180910390f35b3480156105e857600080fd5b506105f16113c2565b6040518082815260200191505060405180910390f35b34801561061357600080fd5b5061061c6113ca565b6040518082815260200191505060405180910390f35b34801561063e57600080fd5b506106476113d0565b005b34801561065557600080fd5b506107a66004803603604081101561066c57600080fd5b810190808035906020019064010000000081111561068957600080fd5b82018360208201111561069b57600080fd5b803590602001918460018302840111640100000000831117156106bd57600080fd5b91908080601f016020809104026020016040519081016040528093929190818152602001838380828437600081840152601f19601f8201169050808301925050505050505091929192908035906020019064010000000081111561072057600080fd5b82018360208201111561073257600080fd5b8035906020019184600183028401116401000000008311171561075457600080fd5b91908080601f016020809104026020016040519081016040528093929190818152602001838380828437600081840152601f19601f820116905080830192505050505050509192919290505050611556565b6040518080602001828103825283818151815260200191508051906020019080838360005b838110156107e65780820151818401526020810190506107cb565b50505050905090810190601f1680156108135780820380516001836020036101000a031916815260200191505b509250505060405180910390f35b34801561082d57600080fd5b50610836610fdd565b604051808273ffffffffffffffffffffffffffffffffffffffff16815260200191505060405180910390f35b34801561086e57600080fd5b5061089b6004803603602081101561088557600080fd5b81019080803590602001909291905050506116b1565b604051808673ffffffffffffffffffffffffffffffffffffffff1681526020018581526020018481526020018381526020018281526020019550505050505060405180910390f35b3480156108ef57600080fd5b5061093c6004803603604081101561090657600080fd5b81019080803573ffffffffffffffffffffffffffffffffffffffff16906020019092919080359060200190929190505050611707565b604051808973ffffffffffffffffffffffffffffffffffffffff1681526020018881526020018781526020018681526020018581526020018481526020018381526020018281526020019850505050505050505060405180910390f35b3480156109a557600080fd5b506109d2600480360360208110156109bc57600080fd5b810190808035906020019092919050505061177c565b6040518080602001828103825283818151815260200191508051906020019080838360005b83811015610a125780820151818401526020810190506109f7565b50505050905090810190601f168015610a3f5780820380516001836020036101000a031916815260200191505b509250505060405180910390f35b348015610a5957600080fd5b50610b1360048036036020811015610a7057600080fd5b8101908080359060200190640100000000811115610a8d57600080fd5b820183602082011115610a9f57600080fd5b80359060200191846001830284011164010000000083111715610ac157600080fd5b91908080601f016020809104026020016040519081016040528093929190818152602001838380828437600081840152601f19601f82011690508083019250505050505050919291929050505061182c565b60405180821515815260200191505060405180910390f35b348015610b3757600080fd5b50610b40611839565b604051808473ffffffffffffffffffffffffffffffffffffffff168152602001838152602001828152602001935050505060405180910390f35b348015610b8657600080fd5b50610b8f611871565b6040518082815260200191505060405180910390f35b348015610bb157600080fd5b50610bde60048036036020811015610bc857600080fd5b8101908080359060200190929190505050611882565b005b348015610bec57600080fd5b50610bf5611ba1565b6040518082815260200191505060405180910390f35b348015610c1757600080fd5b50610c20611ba7565b6040518082815260200191505060405180910390f35b348015610c4257600080fd5b50610c4b611bad565b6040518082815260200191505060405180910390f35b348015610c6d57600080fd5b50610c76611bb9565b6040518082815260200191505060405180910390f35b348015610c9857600080fd5b50610ca1611bbf565b6040518082815260200191505060405180910390f35b348015610cc357600080fd5b50610e2860048036036080811015610cda57600080fd5b8101908080359060200190640100000000811115610cf757600080fd5b820183602082011115610d0957600080fd5b80359060200191846001830284011164010000000083111715610d2b57600080fd5b91908080601f016020809104026020016040519081016040528093929190818152602001838380828437600081840152601f19601f82011690508083019250505050505050919291929080359060200190640100000000811115610d8e57600080fd5b820183602082011115610da057600080fd5b80359060200191846001830284011164010000000083111715610dc257600080fd5b91908080601f016020809104026020016040519081016040528093929190818152602001838380828437600081840152601f19601f8201169050808301925050505050505091929192908035906020019092919080359060200190929190505050611bcb565b005b348015610e3657600080fd5b50610ea1600480360360a0811015610e4d57600080fd5b81019080803573ffffffffffffffffffffffffffffffffffffffff1690602001909291908035906020019092919080359060200190929190803590602001909291908035906020019092919050505061202d565b005b610eab612a49565b005b348015610eb957600080fd5b50610ec2612d90565b6040518082815260200191505060405180910390f35b348015610ee457600080fd5b50610f2760048036036020811015610efb57600080fd5b81019080803573ffffffffffffffffffffffffffffffffffffffff169060200190929190505050612da1565b005b348015610f3557600080fd5b50610f3e612fac565b604051808473ffffffffffffffffffffffffffffffffffffffff168152602001838152602001828152602001935050505060405180910390f35b348015610f8457600080fd5b50610fdb60048036036060811015610f9b57600080fd5b81019080803573ffffffffffffffffffffffffffffffffffffffff1690602001909291908035906020019092919080359060200190929190505050612fe4565b005b60008060009054906101000a900473ffffffffffffffffffffffffffffffffffffffff16905090565b6000611012600861345d565b905090565b60026020528060005260406000206000915090508060000154905081565b6000600160008573ffffffffffffffffffffffffffffffffffffffff1673ffffffffffffffffffffffffffffffffffffffff168152602001908152602001600020600084815260200190815260200160002060070160008381526020019081526020016000205490509392505050565b606080602867ffffffffffffffff811180156110c057600080fd5b506040519080825280601f01601f1916602001820160405280156110f35781602001600182028036833780820191505090505b50905060005b60148110156111fe5760008160130360080260020a8573ffffffffffffffffffffffffffffffffffffffff168161112c57fe5b0460f81b9050600060108260f81c60ff168161114457fe5b0460f81b905060008160f81c6010028360f81c0360f81b90506111668261346b565b85856002028151811061117557fe5b60200101907effffffffffffffffffffffffffffffffffffffffffffffffffffffffffffff1916908160001a9053506111ad8161346b565b8560018660020201815181106111bf57fe5b60200101907effffffffffffffffffffffffffffffffffffffffffffffffffffffffffffff1916908160001a90535050505080806001019150506110f9565b5080915050919050565b6005602052806000526040600020600091509050806000015490806001015490806002018054600181600116156101000203166002900480601f0160208091040260200160405190810160405280929190818152602001828054600181600116156101000203166002900480156112c05780601f10611295576101008083540402835291602001916112c0565b820191906000526020600020905b8154815290600101906020018083116112a357829003601f168201915b505050505090806003018054600181600116156101000203166002900480601f01602080910402602001604051908101604052809291908181526020018280546001816001161561010002031660029004801561135e5780601f106113335761010080835404028352916020019161135e565b820191906000526020600020905b81548152906001019060200180831161134157829003601f168201915b5050505050908060040154908060060154908060070154905087565b600060056000848152602001908152602001600020600501600083815260200190815260200160002054905092915050565b60008060149054906101000a900460ff16905090565b600047905090565b60095481565b6113d861349f565b73ffffffffffffffffffffffffffffffffffffffff1660008054906101000a900473ffffffffffffffffffffffffffffffffffffffff1673ffffffffffffffffffffffffffffffffffffffff1614611498576040517f08c379a00000000000000000000000000000000000000000000000000000000081526004018080602001828103825260208152602001807f4f776e61626c653a2063616c6c6572206973206e6f7420746865206f776e657281525060200191505060405180910390fd5b600073ffffffffffffffffffffffffffffffffffffffff1660008054906101000a900473ffffffffffffffffffffffffffffffffffffffff1673ffffffffffffffffffffffffffffffffffffffff167f8be0079c531659141344cd1fd0a4f28419497f9722a3daafe3b4186f6b6457e060405160405180910390a360008060006101000a81548173ffffffffffffffffffffffffffffffffffffffff021916908373ffffffffffffffffffffffffffffffffffffffff160217905550565b60608083905060608390506060815183510167ffffffffffffffff8111801561157e57600080fd5b506040519080825280601f01601f1916602001820160405280156115b15781602001600182028036833780820191505090505b5090506060819050600080600091505b855182101561162f578582815181106115d657fe5b602001015160f81c60f81b8382806001019350815181106115f357fe5b60200101907effffffffffffffffffffffffffffffffffffffffffffffffffffffffffffff1916908160001a90535081806001019250506115c1565b600091505b84518210156116a25784828151811061164957fe5b602001015160f81c60f81b83828060010193508151811061166657fe5b60200101907effffffffffffffffffffffffffffffffffffffffffffffffffffffffffffff1916908160001a9053508180600101925050611634565b82965050505050505092915050565b60076020528060005260406000206000915090508060000160009054906101000a900473ffffffffffffffffffffffffffffffffffffffff16908060010154908060020154908060030154908060040154905085565b6001602052816000526040600020602052806000526040600020600091509150508060000160009054906101000a900473ffffffffffffffffffffffffffffffffffffffff16908060010154908060020154908060030154908060040154908060050154908060060154908060080154905088565b60046020528060005260406000206000915090508054600181600116156101000203166002900480601f0160208091040260200160405190810160405280929190818152602001828054600181600116156101000203166002900480156118245780601f106117f957610100808354040283529160200191611824565b820191906000526020600020905b81548152906001019060200180831161180757829003601f168201915b505050505081565b6000808251149050919050565b600d8060000160009054906101000a900473ffffffffffffffffffffffffffffffffffffffff16908060010154908060020154905083565b600061187d600361345d565b905090565b61188a61349f565b73ffffffffffffffffffffffffffffffffffffffff1660008054906101000a900473ffffffffffffffffffffffffffffffffffffffff1673ffffffffffffffffffffffffffffffffffffffff161461194a576040517f08c379a00000000000000000000000000000000000000000000000000000000081526004018080602001828103825260208152602001807f4f776e61626c653a2063616c6c6572206973206e6f7420746865206f776e657281525060200191505060405180910390fd5b60095481116119a4576040517f08c379a0000000000000000000000000000000000000000000000000000000008152600401808060200182810382526049815260200180613c5b6049913960600191505060405180910390fd5b6060600460006119be6001856134a790919063ffffffff16565b81526020019081526020016000208054600181600116156101000203166002900480601f016020809104026020016040519081016040528092919081815260200182805460018160011615610100020316600290048015611a605780601f10611a3557610100808354040283529160200191611a60565b820191906000526020600020905b815481529060010190602001808311611a4357829003601f168201915b505050505090506060600460008481526020019081526020016000208054600181600116156101000203166002900480601f016020809104026020016040519081016040528092919081815260200182805460018160011615610100020316600290048015611b105780601f10611ae557610100808354040283529160200191611b10565b820191906000526020600020905b815481529060010190602001808311611af357829003601f168201915b5050505050905060011515611b248361182c565b1515148015611b3f575060011515611b3b8261182c565b1515145b15611b95576040517f08c379a0000000000000000000000000000000000000000000000000000000008152600401808060200182810382526030815260200180613a8d6030913960400191505060405180910390fd5b82600981905550505050565b600c5481565b600a5481565b60038060000154905081565b600b5481565b60068060000154905081565b611bd361349f565b73ffffffffffffffffffffffffffffffffffffffff1660008054906101000a900473ffffffffffffffffffffffffffffffffffffffff1673ffffffffffffffffffffffffffffffffffffffff1614611c93576040517f08c379a00000000000000000000000000000000000000000000000000000000081526004018080602001828103825260208152602001807f4f776e61626c653a2063616c6c6572206973206e6f7420746865206f776e657281525060200191505060405180910390fd5b60008111611cec576040517f08c379a0000000000000000000000000000000000000000000000000000000008152600401808060200182810382526033815260200180613bf56033913960400191505060405180910390fd5b60008211611d45576040517f08c379a0000000000000000000000000000000000000000000000000000000008152600401808060200182810382526033815260200180613c286033913960400191505060405180910390fd5b60001515611d528561182c565b151514611dc7576040517f08c379a000000000000000000000000000000000000000000000000000000000815260040180806020018281038252601d8152602001807f4120766964656f2068617368206d75737420626520737570706c69656400000081525060200191505060405180910390fd5b60001515611dd48461182c565b151514611e49576040517f08c379a000000000000000000000000000000000000000000000000000000000815260040180806020018281038252601f8152602001807f4120726563656970742068617368206d75737420626520737570706c6965640081525060200191505060405180910390fd5b80471015611ea2576040517f08c379a000000000000000000000000000000000000000000000000000000000815260040180806020018281038252604a815260200180613cea604a913960600191505060405180910390fd5b611eac60066134f1565b6040518060e0016040528082815260200183815260200185815260200184815260200142815260200160008152602001600081525060056000611eef600661345d565b815260200190815260200160002060008201518160000155602082015181600101556040820151816002019080519060200190611f2d9291906138e5565b506060820151816003019080519060200190611f4a9291906138e5565b506080820151816004015560a0820151816006015560c08201518160070155905050611f8181600b5461350790919063ffffffff16565b600b81905550611f9c82600c5461350790919063ffffffff16565b600c81905550611faa610fdd565b73ffffffffffffffffffffffffffffffffffffffff166108fc829081150290604051600060405180830381858888f19350505050158015611fef573d6000803e3d6000fd5b507fb8fce95d9068176118756632cec9fc2b7211eddc17eadd866f0d175a6984a60a816040518082815260200191505060405180910390a150505050565b61203561349f565b73ffffffffffffffffffffffffffffffffffffffff1660008054906101000a900473ffffffffffffffffffffffffffffffffffffffff1673ffffffffffffffffffffffffffffffffffffffff16146120f5576040517f08c379a00000000000000000000000000000000000000000000000000000000081526004018080602001828103825260208152602001807f4f776e61626c653a2063616c6c6572206973206e6f7420746865206f776e657281525060200191505060405180910390fd5b6120fd613965565b600160008773ffffffffffffffffffffffffffffffffffffffff1673ffffffffffffffffffffffffffffffffffffffff1681526020019081526020016000206000848152602001908152602001600020604051806101000160405290816000820160009054906101000a900473ffffffffffffffffffffffffffffffffffffffff1673ffffffffffffffffffffffffffffffffffffffff1673ffffffffffffffffffffffffffffffffffffffff16815260200160018201548152602001600282015481526020016003820154815260200160048201548152602001600582015481526020016006820154815260200160088201548152505090506121ff6139c0565b600560008481526020019081526020016000206040518060e00160405290816000820154815260200160018201548152602001600282018054600181600116156101000203166002900480601f0160208091040260200160405190810160405280929190818152602001828054600181600116156101000203166002900480156122ca5780601f1061229f576101008083540402835291602001916122ca565b820191906000526020600020905b8154815290600101906020018083116122ad57829003601f168201915b50505050508152602001600382018054600181600116156101000203166002900480601f01602080910402602001604051908101604052809291908181526020018280546001816001161561010002031660029004801561236c5780601f106123415761010080835404028352916020019161236c565b820191906000526020600020905b81548152906001019060200180831161234f57829003601f168201915b505050505081526020016004820154815260200160068201548152602001600782015481525050905060008260200151116123f2576040517f08c379a000000000000000000000000000000000000000000000000000000000815260040180806020018281038252604e815260200180613ae3604e913960600191505060405180910390fd5b600081600001511161244f576040517f08c379a0000000000000000000000000000000000000000000000000000000008152600401808060200182810382526046815260200180613ca46046913960600191505060405180910390fd5b600086116124a8576040517f08c379a000000000000000000000000000000000000000000000000000000000815260040180806020018281038252602d815260200180613a60602d913960400191505060405180910390fd5b60008511612501576040517f08c379a000000000000000000000000000000000000000000000000000000000815260040180806020018281038252602d815260200180613dbe602d913960400191505060405180910390fd5b6125328260a00151612524846060015185602001516134a790919063ffffffff16565b6134a790919063ffffffff16565b86111561258a576040517f08c379a0000000000000000000000000000000000000000000000000000000008152600401808060200182810382526045815260200180613d796045913960600191505060405180910390fd5b6125a58160c0015182600001516134a790919063ffffffff16565b8611156125fd576040517f08c379a0000000000000000000000000000000000000000000000000000000008152600401808060200182810382526045815260200180613d346045913960600191505060405180910390fd5b61260760086134f1565b61260f6139fd565b6040518060a001604052808973ffffffffffffffffffffffffffffffffffffffff1681526020018881526020018781526020018581526020018681525090507f939becae3347e50dea31641fdf458b8626577c08de3de7f8c84b33a38170b87d888686604051808473ffffffffffffffffffffffffffffffffffffffff168152602001838152602001828152602001935050505060405180910390a160006126b7600861345d565b9050816007600083815260200190815260200160002060008201518160000160006101000a81548173ffffffffffffffffffffffffffffffffffffffff021916908373ffffffffffffffffffffffffffffffffffffffff16021790555060208201518160010155604082015181600201556060820151816003015560808201518160040155905050600061275960018660e0015161350790919063ffffffff16565b90506127c189600160008d73ffffffffffffffffffffffffffffffffffffffff1673ffffffffffffffffffffffffffffffffffffffff16815260200190815260200160002060008a81526020019081526020016000206003015461350790919063ffffffff16565b600160008c73ffffffffffffffffffffffffffffffffffffffff1673ffffffffffffffffffffffffffffffffffffffff16815260200190815260200160002060008981526020019081526020016000206003018190555061287e88600160008d73ffffffffffffffffffffffffffffffffffffffff1673ffffffffffffffffffffffffffffffffffffffff16815260200190815260200160002060008a81526020019081526020016000206004015461350790919063ffffffff16565b600160008c73ffffffffffffffffffffffffffffffffffffffff1673ffffffffffffffffffffffffffffffffffffffff16815260200190815260200160002060008981526020019081526020016000206004018190555080600160008c73ffffffffffffffffffffffffffffffffffffffff1673ffffffffffffffffffffffffffffffffffffffff16815260200190815260200160002060008981526020019081526020016000206008018190555081600160008c73ffffffffffffffffffffffffffffffffffffffff1673ffffffffffffffffffffffffffffffffffffffff168152602001908152602001600020600089815260200190815260200160002060070160008381526020019081526020016000208190555060006129b060018660a0015161350790919063ffffffff16565b90508060056000898152602001908152602001600020600601819055506129f68a600560008a81526020019081526020016000206007015461350790919063ffffffff16565b600560008981526020019081526020016000206007018190555082600560008981526020019081526020016000206005016000838152602001908152602001600020819055505050505050505050505050565b60003411612aa2576040517f08c379a0000000000000000000000000000000000000000000000000000000008152600401808060200182810382526026815260200180613b316026913960400191505060405180910390fd5b612ae9600260003373ffffffffffffffffffffffffffffffffffffffff1673ffffffffffffffffffffffffffffffffffffffff1681526020019081526020016000206134f1565b6000612b32600260003373ffffffffffffffffffffffffffffffffffffffff1673ffffffffffffffffffffffffffffffffffffffff16815260200190815260200160002061345d565b9050612b3c613965565b6040518061010001604052803373ffffffffffffffffffffffffffffffffffffffff1681526020013481526020014281526020016000815260200160008152602001600081526020018381526020016000815250905080600160003373ffffffffffffffffffffffffffffffffffffffff1673ffffffffffffffffffffffffffffffffffffffff168152602001908152602001600020600084815260200190815260200160002060008201518160000160006101000a81548173ffffffffffffffffffffffffffffffffffffffff021916908373ffffffffffffffffffffffffffffffffffffffff1602179055506020820151816001015560408201518160020155606082015181600301556080820151816004015560a0820151816005015560c0820151816006015560e082015181600801559050507f56296dbde10331816a5c033ca4a80f05da0583e1649a589f505ad160413c8bdd338334604051808473ffffffffffffffffffffffffffffffffffffffff168152602001838152602001828152602001935050505060405180910390a1612cd98161358f565b612ce360036134f1565b6060612d2c612cf1846136de565b6040518060400160405280600181526020017f2d00000000000000000000000000000000000000000000000000000000000000815250611556565b9050612d4081612d3b336110a5565b611556565b60046000612d4e600361345d565b81526020019081526020016000209080519060200190612d6f9291906138e5565b50612d8534600a5461350790919063ffffffff16565b600a81905550505050565b6000612d9c600661345d565b905090565b612da961349f565b73ffffffffffffffffffffffffffffffffffffffff1660008054906101000a900473ffffffffffffffffffffffffffffffffffffffff1673ffffffffffffffffffffffffffffffffffffffff1614612e69576040517f08c379a00000000000000000000000000000000000000000000000000000000081526004018080602001828103825260208152602001807f4f776e61626c653a2063616c6c6572206973206e6f7420746865206f776e657281525060200191505060405180910390fd5b600073ffffffffffffffffffffffffffffffffffffffff168173ffffffffffffffffffffffffffffffffffffffff161415612eef576040517f08c379a0000000000000000000000000000000000000000000000000000000008152600401808060200182810382526026815260200180613abd6026913960400191505060405180910390fd5b8073ffffffffffffffffffffffffffffffffffffffff1660008054906101000a900473ffffffffffffffffffffffffffffffffffffffff1673ffffffffffffffffffffffffffffffffffffffff167f8be0079c531659141344cd1fd0a4f28419497f9722a3daafe3b4186f6b6457e060405160405180910390a3806000806101000a81548173ffffffffffffffffffffffffffffffffffffffff021916908373ffffffffffffffffffffffffffffffffffffffff16021790555050565b60108060000160009054906101000a900473ffffffffffffffffffffffffffffffffffffffff16908060010154908060020154905083565b612fec61349f565b73ffffffffffffffffffffffffffffffffffffffff1660008054906101000a900473ffffffffffffffffffffffffffffffffffffffff1673ffffffffffffffffffffffffffffffffffffffff16146130ac576040517f08c379a00000000000000000000000000000000000000000000000000000000081526004018080602001828103825260208152602001807f4f776e61626c653a2063616c6c6572206973206e6f7420746865206f776e657281525060200191505060405180910390fd5b6130b4613965565b600160008573ffffffffffffffffffffffffffffffffffffffff1673ffffffffffffffffffffffffffffffffffffffff1681526020019081526020016000206000848152602001908152602001600020604051806101000160405290816000820160009054906101000a900473ffffffffffffffffffffffffffffffffffffffff1673ffffffffffffffffffffffffffffffffffffffff1673ffffffffffffffffffffffffffffffffffffffff1681526020016001820154815260200160028201548152602001600382015481526020016004820154815260200160058201548152602001600682015481526020016008820154815250509050600081602001511161320b576040517f08c379a000000000000000000000000000000000000000000000000000000000815260040180806020018281038252604e815260200180613ae3604e913960600191505060405180910390fd5b81613227826060015183602001516134a790919063ffffffff16565b101561327e576040517f08c379a000000000000000000000000000000000000000000000000000000000815260040180806020018281038252604e815260200180613ba7604e913960600191505060405180910390fd5b478211156132d7576040517f08c379a0000000000000000000000000000000000000000000000000000000008152600401808060200182810382526050815260200180613b576050913960600191505060405180910390fd5b806000015173ffffffffffffffffffffffffffffffffffffffff166108fc839081150290604051600060405180830381858888f19350505050158015613321573d6000803e3d6000fd5b5061338882600160008773ffffffffffffffffffffffffffffffffffffffff1673ffffffffffffffffffffffffffffffffffffffff16815260200190815260200160002060008681526020019081526020016000206005015461350790919063ffffffff16565b600160008673ffffffffffffffffffffffffffffffffffffffff1673ffffffffffffffffffffffffffffffffffffffff1681526020019081526020016000206000858152602001908152602001600020600501819055506133f482600a546134a790919063ffffffff16565b600a819055507f85b03f39e425a93166a8c90f63b4c3e86fbc8cac80cf00da43f6e79c6fe008b3848484604051808473ffffffffffffffffffffffffffffffffffffffff168152602001838152602001828152602001935050505060405180910390a150505050565b600081600001549050919050565b6000600a8260f81c60ff16101561348d5760308260f81c0160f81b905061349a565b60578260f81c0160f81b90505b919050565b600033905090565b60006134e983836040518060400160405280601e81526020017f536166654d6174683a207375627472616374696f6e206f766572666c6f770000815250613825565b905092915050565b6001816000016000828254019250508190555050565b600080828401905083811015613585576040517f08c379a000000000000000000000000000000000000000000000000000000000815260040180806020018281038252601b8152602001807f536166654d6174683a206164646974696f6e206f766572666c6f77000000000081525060200191505060405180910390fd5b8091505092915050565b600d600101548160200151111561363e576040518060600160405280826000015173ffffffffffffffffffffffffffffffffffffffff168152602001826020015181526020018260400151815250600d60008201518160000160006101000a81548173ffffffffffffffffffffffffffffffffffffffff021916908373ffffffffffffffffffffffffffffffffffffffff16021790555060208201518160010155604082015181600201559050505b6040518060600160405280826000015173ffffffffffffffffffffffffffffffffffffffff168152602001826020015181526020018260400151815250601060008201518160000160006101000a81548173ffffffffffffffffffffffffffffffffffffffff021916908373ffffffffffffffffffffffffffffffffffffffff160217905550602082015181600101556040820151816002015590505050565b60606000821415613726576040518060400160405280600181526020017f30000000000000000000000000000000000000000000000000000000000000008152509050613820565b600082905060005b60008214613750578080600101915050600a828161374857fe5b04915061372e565b60608167ffffffffffffffff8111801561376957600080fd5b506040519080825280601f01601f19166020018201604052801561379c5781602001600182028036833780820191505090505b50905060006001830390508593505b6000841461381857600a84816137bd57fe5b0660300160f81b828280600190039350815181106137d757fe5b60200101907effffffffffffffffffffffffffffffffffffffffffffffffffffffffffffff1916908160001a905350600a848161381057fe5b0493506137ab565b819450505050505b919050565b60008383111582906138d2576040517f08c379a00000000000000000000000000000000000000000000000000000000081526004018080602001828103825283818151815260200191508051906020019080838360005b8381101561389757808201518184015260208101905061387c565b50505050905090810190601f1680156138c45780820380516001836020036101000a031916815260200191505b509250505060405180910390fd5b5060008385039050809150509392505050565b828054600181600116156101000203166002900490600052602060002090601f016020900481019282601f1061392657805160ff1916838001178555613954565b82800160010185558215613954579182015b82811115613953578251825591602001919060010190613938565b5b5090506139619190613a42565b5090565b604051806101000160405280600073ffffffffffffffffffffffffffffffffffffffff168152602001600081526020016000815260200160008152602001600081526020016000815260200160008152602001600081525090565b6040518060e00160405280600081526020016000815260200160608152602001606081526020016000815260200160008152602001600081525090565b6040518060a00160405280600073ffffffffffffffffffffffffffffffffffffffff168152602001600081526020016000815260200160008152602001600081525090565b5b80821115613a5b576000816000905550600101613a43565b509056fe546865204554482076616c756520657870656e646564206d7573742062652067726561746572207468616e2030546865204944206f6620746865206e65787420646f6e6174696f6e20746f20657870656e6420697320696e76616c69644f776e61626c653a206e6577206f776e657220697320746865207a65726f20616464726573734120646f6e6174696f6e2077697468207468652070726f7669646564206164647265737320616e642f6f7220646f6e6174696f6e206e756d62657220636f756c64206e6f7420626520666f756e64446f6e6174696f6e20616d6f756e74206d7573742062652067726561746572207468616e203054686520636f6e747261637420646f6573206e6f74206861766520656e6f7567682062616c616e636520746f206d616b65206120726566756e64206f6620746865207265717565737465642073697a65596f75206d6179206e6f7420726566756e64206d6f7265207468616e207468652076616c7565206f662074686520646f6e6174696f6e206c65737320616e7920657870656e64656469747572657354686520657870656e6469747572652076616c756520696e20455448206d7573742062652067726561746572207468616e203054686520657870656e6469747572652076616c756520696e20555344206d7573742062652067726561746572207468616e2030596f75206d7573742070726f7669646520612076616c75652067726561746572207468616e207468652063757272656e74206e65787420646f6e6174696f6e20746f20657870656e64416e20657870656e6469747572652077697468207468652070726f766964656420657870656e646974757265206e756d62657220636f756c64206e6f7420626520666f756e6454686520657870656e646974757265206d757374206265206c657373207468616e206f7220657175616c20746f207468652062616c616e6365206f662074686520636f6e74726163742e596f75206d6179206e6f7420657870656e64206d6f7265207468616e207468652076616c7565206f6620746865206173736f63696174656420657870656e6469747572652e596f75206d6179206e6f7420657870656e64206d6f7265206f66206120646f6e6174696f6e207468616e206974206861732072656d61696e696e6720746f20657870656e64546865205553442076616c756520657870656e646564206d7573742062652067726561746572207468616e2030a2646970667358221220b32d7bc27a3820f8cdf3e91bf4219c4d17c5c0bc74f3c0b2e802f0d19437e0b764736f6c634300060c0033",
  "immutableReferences": {},
  "source": "/* solium-disable no-trailing-whitespace, security/no-block-members */\n// SPDX-License-Identifier: MIT\npragma solidity >= 0.6.0 < 0.7.0;\n\nimport \"../node_modules/@openzeppelin/contracts/access/Ownable.sol\";\nimport \"../node_modules/@openzeppelin/contracts/utils/Pausable.sol\";\nimport \"../node_modules/@openzeppelin/contracts/utils/Counters.sol\";\nimport \"../node_modules/@openzeppelin/contracts/utils/Strings.sol\";\nimport \"../node_modules/@openzeppelin/contracts/math/SafeMath.sol\";\n\ncontract StandardCharity is Ownable, Pausable {\n  using Counters for Counters.Counter;\n  using Strings for *;\n  using SafeMath for uint256;\n\n  mapping (address => mapping (uint256 => Donation)) public donations;\n  mapping (address => Counters.Counter) public numDonationsByUser;\n  Counters.Counter public totalNumDonations;\n  /**\n   * @notice The donationTracker mapping format is as follows:\n   * {total donation number for the user}-{donator address without leading 0x}\n   *\n   * So, for example, if the first donation that this contract receives\n   * is from address 0xA7a5F8EA98C9b345075dDa7442A833189Ce3717e, the \n   * donationTracker mapping entry will look like this:\n   * 1 => 1-a7a5f8ea98c9b345075dda7442a833189ce3717e\n   *\n   * Note how the address is converted to lower case.\n   */\n  mapping (uint256 => string) public donationTracker;\n  \n  mapping (uint256 => Expenditure) public expenditures;\n  Counters.Counter public totalNumExpenditures;\n\n  mapping (uint256 => ExpendedDonation) public expendedDonations;\n  Counters.Counter totalNumExpendedDonations;\n\n  uint256 public nextDonationToExpend;\n\n  uint256 public totalDonationsETH;\n  uint256 public totalExpendedETH;\n  uint256 public totalExpendedUSD;\n\n  SpotlightDonation public maxDonation;\n  SpotlightDonation public latestDonation;\n\n  /// @param donationNumber The donation number for this particular address\n  struct Donation {\n    address donator;\n    uint256 value;\n    uint256 timestamp;\n    uint256 valueExpendedETH;\n    uint256 valueExpendedUSD;\n    uint256 valueRefundedETH;\n    uint256 donationNumber;\n    mapping (uint256 => uint256) expendedDonationIDs;\n    uint256 numExpenditures;\n  }\n\n  struct SpotlightDonation {\n    address donator;\n    uint256 value;\n    uint256 timestamp;\n  }\n\n  /// @param donationNumber The donation number for this particular address\n  struct ExpendedDonation {\n    address donator;\n    uint256 valueExpendedETH;\n    uint256 valueExpendedUSD;\n    uint256 expenditureNumber;\n    uint256 donationNumber;\n  }\n\n  /// @param videoHash The hash of the video file associated with this donation. The\n  /// XXHash algorithm is used to produce a 32 bit hash with a seed of 0xCAFEBABE\n  /// @param valueExpendedUSD Value in cents\n  struct Expenditure {\n    uint256 valueExpendedETH;\n    uint256 valueExpendedUSD;\n    string videoHash;\n    string receiptHash;\n    uint256 timestamp;\n    mapping (uint256 => uint256) expendedDonationIDs;\n    uint256 numExpendedDonations;\n    uint256 valueExpendedByDonations;\n  }\n\n  event LogNewDonation(address donator, uint256 donationNumber, uint256 value);\n  event LogNewExpenditure(uint256 valueETH);\n  event LogNewExpendedDonation(address donator, uint256 donationNumber, uint256 expeditureNumber);\n  event LogNewRefund(address donator, uint256 donationNumber, uint256 valueETH);\n\n  constructor() public {\n    nextDonationToExpend = 1;\n  }\n\n  function donate() public payable {\n    require(msg.value > 0, 'Donation amount must be greater than 0');\n\n    numDonationsByUser[msg.sender].increment();\n\n    uint256 donationNumber = numDonationsByUser[msg.sender].current();\n\n    Donation memory _donation = Donation({\n      donator: msg.sender,\n      value: msg.value,\n      timestamp: now,\n      valueExpendedETH: 0,\n      valueExpendedUSD: 0,\n      donationNumber: donationNumber,\n      numExpenditures: 0,\n      valueRefundedETH: 0\n    });\n\n    donations[msg.sender][donationNumber] = _donation;\n\n    emit LogNewDonation(msg.sender, donationNumber, msg.value);\n\n    updateStoredDonations(_donation);\n\n    totalNumDonations.increment();\n\n    string memory donationNumWithDash = concat(\n      donationNumber.toString(),\n      '-'\n    );\n\n    donationTracker[totalNumDonations.current()] = concat(\n      donationNumWithDash,\n      toAsciiString(msg.sender)\n    );\n\n    totalDonationsETH = totalDonationsETH.add(msg.value);\n  }\n\n  /// @param _valueUSD Denominated in cents\n  function createExpenditure(\n    string memory _videoHash,\n    string memory _receiptHash,\n    uint256 _valueUSD,\n    uint256 _valueETH\n  ) public onlyOwner() {\n    require(\n      _valueETH > 0,\n      'The expenditure value in ETH must be greater than 0'\n    );\n\n    require(\n      _valueUSD > 0,\n      'The expenditure value in USD must be greater than 0'\n    );\n\n    require(\n      isTextEmpty(_videoHash) == false,\n      'A video hash must be supplied'\n    );\n\n    require(\n      isTextEmpty(_receiptHash) == false,\n      'A receipt hash must be supplied'\n    );\n\n    require(\n      address(this).balance >= _valueETH,\n      'The expenditure must be less than or equal to the balance of the contract.'\n    );\n\n    totalNumExpenditures.increment();\n\n    expenditures[totalNumExpenditures.current()] = Expenditure({\n      valueExpendedETH: _valueETH,\n      valueExpendedUSD: _valueUSD,\n      videoHash: _videoHash,\n      receiptHash: _receiptHash,\n      timestamp: now,\n      numExpendedDonations: 0,\n      valueExpendedByDonations: 0\n    });\n\n    totalExpendedETH = totalExpendedETH.add(_valueETH);\n\n    totalExpendedUSD = totalExpendedUSD.add(_valueUSD);\n\n    payable(owner()).transfer(_valueETH);\n\n    emit LogNewExpenditure(_valueETH);\n  }\n\n  function setNextDonationToExpend(uint256 _nextDonationToExpend) public onlyOwner() {\n    require(\n      _nextDonationToExpend > nextDonationToExpend,\n      'You must provide a value greater than the current next donation to expend'\n    );\n    \n    string memory lastDonation = donationTracker[_nextDonationToExpend.sub(1)];\n\n    string memory thisDonation = donationTracker[_nextDonationToExpend];\n\n    if (isTextEmpty(lastDonation) == true && isTextEmpty(thisDonation) == true) {\n      revert('The ID of the next donation to expend is invalid');\n    }\n\n    nextDonationToExpend = _nextDonationToExpend;\n  }\n\n  function createExpendedDonation(\n    address _donator,\n    uint256 _valueExpendedETH,\n    uint256 _valueExpendedUSD,\n    uint256 _donationNumber,\n    uint256 _expeditureNumber\n  ) public onlyOwner() {\n    Donation memory donation = donations[_donator][_donationNumber];\n\n    Expenditure memory expenditure = expenditures[_expeditureNumber];\n\n    require(\n      donation.value > 0,\n      'A donation with the provided address and/or donation number could not be found'\n    );\n\n    require(\n      expenditure.valueExpendedETH > 0,\n      'An expenditure with the provided expenditure number could not be found'\n    );\n\n    require(\n      _valueExpendedETH > 0,\n      'The ETH value expended must be greater than 0'\n    );\n\n    require(\n      _valueExpendedUSD > 0,\n      'The USD value expended must be greater than 0'\n    );\n\n    require(\n      _valueExpendedETH <= donation.value.sub(donation.valueExpendedETH).sub(donation.valueRefundedETH),\n      'You may not expend more of a donation than it has remaining to expend'\n    );\n\n    require(\n      _valueExpendedETH <= expenditure.valueExpendedETH.sub(expenditure.valueExpendedByDonations),\n      'You may not expend more than the value of the associated expenditure.'\n    );\n\n    totalNumExpendedDonations.increment();\n\n    ExpendedDonation memory expendedDonation = ExpendedDonation({\n      donator: _donator,\n      donationNumber: _donationNumber,\n      valueExpendedETH: _valueExpendedETH,\n      valueExpendedUSD: _valueExpendedUSD,\n      expenditureNumber: _expeditureNumber\n    });\n\n    emit LogNewExpendedDonation(_donator, _donationNumber, _expeditureNumber);\n\n    uint256 currentExpendedDonation = totalNumExpendedDonations.current();\n\n    expendedDonations[currentExpendedDonation] = expendedDonation;\n\n    // Add the donation expenditure to the donation\n\n    uint256 numDonationExpenditures = donation.numExpenditures.add(1);\n\n    donations[_donator][_donationNumber].valueExpendedETH =\n      donations[_donator][_donationNumber].valueExpendedETH.add(_valueExpendedETH);\n\n    donations[_donator][_donationNumber].valueExpendedUSD =\n      donations[_donator][_donationNumber].valueExpendedUSD.add(_valueExpendedUSD);\n\n    donations[_donator][_donationNumber].numExpenditures = numDonationExpenditures;\n\n    donations[_donator][_donationNumber].expendedDonationIDs[numDonationExpenditures] = currentExpendedDonation;\n\n    // Add the donation expenditure to the expenditure\n\n    uint256 numExpendedDonations = expenditure.numExpendedDonations.add(1);\n\n    expenditures[_expeditureNumber].numExpendedDonations = numExpendedDonations;\n\n    expenditures[_expeditureNumber].valueExpendedByDonations =\n      expenditures[_expeditureNumber].valueExpendedByDonations.add(_valueExpendedETH);\n\n    expenditures[_expeditureNumber].expendedDonationIDs[numExpendedDonations] = currentExpendedDonation;\n  }\n\n  /// @dev Returns an ID (uint256) to be used to get a value from the expendedDonations mapping\n  function getExpendedDonationIDForDonation(\n    address _address,\n    uint256 _donationNumber,\n    uint256 _expenditureNumber\n  ) public view returns (uint256) {\n    return donations[_address][_donationNumber].expendedDonationIDs[_expenditureNumber];\n  }\n\n  /// @dev Returns an ID (uint256) to be used to get a value from the expendedDonations mapping\n  function getExpendedDonationIDForExpenditure(\n    uint256 _expenditureNumber,\n    uint256 _expendedDonationNumber\n  ) public view returns (uint256) {\n    return expenditures[_expenditureNumber].expendedDonationIDs[_expendedDonationNumber];\n  }\n\n  function refundDonation(\n    address _address,\n    uint256 _donationNumber,\n    uint256 _valueETHToRefund\n  ) public onlyOwner() {\n    Donation memory donation = donations[_address][_donationNumber];\n\n    require(\n      donation.value > 0,\n      'A donation with the provided address and/or donation number could not be found'\n    );\n\n    require(\n      donation.value.sub(donation.valueExpendedETH) >= _valueETHToRefund,\n      'You may not refund more than the value of the donation less any expendeditures'\n    );\n\n    // This should never happen, but it's placed here as a check just in case.\n    require(\n      _valueETHToRefund <= address(this).balance,\n      'The contract does not have enough balance to make a refund of the requested size'\n    );\n\n    payable(donation.donator).transfer(_valueETHToRefund);\n\n    donations[_address][_donationNumber].valueRefundedETH =\n      donations[_address][_donationNumber].valueRefundedETH.add(_valueETHToRefund);\n\n    totalDonationsETH = totalDonationsETH.sub(_valueETHToRefund);\n\n    emit LogNewRefund(_address, _donationNumber, _valueETHToRefund);\n  }\n\n  function toAsciiString(address x) public pure returns (string memory) {\n    bytes memory s = new bytes(40);\n\n    for (uint i = 0; i < 20; i++) {\n        byte b = byte(uint8(uint(x) / (2**(8*(19 - i)))));\n        byte hi = byte(uint8(b) / 16);\n        byte lo = byte(uint8(b) - 16 * uint8(hi));\n        s[2*i] = char(hi);\n        s[2*i+1] = char(lo);            \n    }\n\n    return string(s);\n  }\n\n  function char(byte b) internal pure returns (byte c) {\n      if (uint8(b) < 10) return byte(uint8(b) + 0x30);\n      else return byte(uint8(b) + 0x57);\n  }\n\n  function concat(\n    string memory _base,\n    string memory _value\n  ) public pure returns (string memory) {\n    bytes memory _baseBytes = bytes(_base);\n    bytes memory _valueBytes = bytes(_value);\n\n    string memory _tmpValue = new string(\n      _baseBytes.length +\n      _valueBytes.length\n    );\n    \n    bytes memory _newValue = bytes(_tmpValue);\n\n    uint i;\n    uint j;\n\n    for (i = 0; i < _baseBytes.length; i++) {\n      _newValue[j++] = _baseBytes[i];\n    }\n\n    for (i = 0; i < _valueBytes.length; i++) {\n      _newValue[j++] = _valueBytes[i];\n    }\n\n    return string(_newValue);\n  }\n\n  function updateStoredDonations(Donation memory _donation) internal {\n    if (_donation.value > maxDonation.value) {\n      maxDonation = SpotlightDonation({\n        donator: _donation.donator,\n        value: _donation.value,\n        timestamp: _donation.timestamp\n      });\n    }\n\n    latestDonation = SpotlightDonation({\n      donator: _donation.donator,\n      value: _donation.value,\n      timestamp: _donation.timestamp\n    });\n  }\n\n  receive() external payable {\n    if (msg.value > 0) {\n      payable(owner()).transfer(msg.value);\n    }\n  }\n\n  function getTotalNumDonations() public view returns (uint256) {\n    return totalNumDonations.current();\n  }\n\n  function getTotalNumExpenditures() public view returns (uint256) {\n    return totalNumExpenditures.current();\n  }\n\n  function getTotalNumExpendedDonations() public view returns (uint256) {\n    return totalNumExpendedDonations.current();\n  }\n\n  function getContractBalance() public view returns (uint256) {\n    return address(this).balance;\n  }\n\n  /// @notice Check to see if a string is empty\n  /// @param _string A string for which to check whether it is empty\n  /// @return a boolean value that expresses whether the string is empty\n  function isTextEmpty(string memory _string) public pure returns(bool) {\n    return bytes(_string).length == 0;\n  }\n}\n",
  "sourcePath": "/Users/johnwall/Desktop/CryptOpinion/Freelance/StandardCharity/eth-contracts/contracts/StandardCharity.sol",
  "compiler": {
    "name": "solc",
    "version": "0.6.12+commit.27d51765.Emscripten.clang"
  },
  "schemaVersion": "3.2.3",
  "updatedAt": "2020-08-13T21:32:07.068Z",
  "devdoc": {
    "kind": "dev",
    "methods": {
      "createExpenditure(string,string,uint256,uint256)": {
        "params": {
          "_valueUSD": "Denominated in cents"
        }
      },
      "getExpendedDonationIDForDonation(address,uint256,uint256)": {
        "details": "Returns an ID (uint256) to be used to get a value from the expendedDonations mapping"
      },
      "getExpendedDonationIDForExpenditure(uint256,uint256)": {
        "details": "Returns an ID (uint256) to be used to get a value from the expendedDonations mapping"
      },
      "isTextEmpty(string)": {
        "params": {
          "_string": "A string for which to check whether it is empty"
        },
        "returns": {
          "_0": "a boolean value that expresses whether the string is empty"
        }
      },
      "owner()": {
        "details": "Returns the address of the current owner."
      },
      "paused()": {
        "details": "Returns true if the contract is paused, and false otherwise."
      },
      "renounceOwnership()": {
        "details": "Leaves the contract without owner. It will not be possible to call `onlyOwner` functions anymore. Can only be called by the current owner. NOTE: Renouncing ownership will leave the contract without an owner, thereby removing any functionality that is only available to the owner."
      },
      "transferOwnership(address)": {
        "details": "Transfers ownership of the contract to a new account (`newOwner`). Can only be called by the current owner."
      }
    },
    "version": 1
  },
  "userdoc": {
    "kind": "user",
    "methods": {
      "donationTracker(uint256)": {
        "notice": "The donationTracker mapping format is as follows: {total donation number for the user}-{donator address without leading 0x} So, for example, if the first donation that this contract receives is from address 0xA7a5F8EA98C9b345075dDa7442A833189Ce3717e, the  donationTracker mapping entry will look like this: 1 => 1-a7a5f8ea98c9b345075dda7442a833189ce3717e Note how the address is converted to lower case."
      },
      "isTextEmpty(string)": {
        "notice": "Check to see if a string is empty"
      }
    },
    "version": 1
  }
}